:020000040000fa
:080000000001040000000000f3
:020000040000fa
:04000800dc01000017
:020000040000fa
:04000c00dc01000013
:020000040000fa
:04001000dc0100000f
:020000040000fa
:04001400dc0100000b
:020000040000fa
:04001800dc01000007
:020000040000fa
:04001c00dc01000003
:020000040000fa
:04002000dc010000ff
:020000040000fa
:04002400dc010000fb
:020000040000fa
:04002800dc010000f7
:020000040000fa
:04002c00dc010000f3
:020000040000fa
:04003000dc010000ef
:020000040000fa
:04003400c8010000ff
:020000040000fa
:04003800dc010000e7
:020000040000fa
:04003c00dc010000e3
:020000040000fa
:04004000dc010000df
:020000040000fa
:04004400dc010000db
:020000040000fa
:04004800dc010000d7
:020000040000fa
:04004c00dc010000d3
:020000040000fa
:04005000dc010000cf
:020000040000fa
:04005400dc010000cb
:020000040000fa
:04005800dc010000c7
:020000040000fa
:04005c00dc010000c3
:020000040000fa
:04006000dc010000bf
:020000040000fa
:04006400dc010000bb
:020000040000fa
:04006800dc010000b7
:020000040000fa
:04006c00dc010000b3
:020000040000fa
:04007000dc010000af
:020000040000fa
:04007400dc010000ab
:020000040000fa
:04007800dc010000a7
:020000040000fa
:04007c00dc010000a3
:020000040000fa
:04008000dc0100009f
:020000040000fa
:04008400dc0100009b
:020000040000fa
:04008800dc01000097
:020000040000fa
:04008c00dc01000093
:020000040000fa
:04009000dc0100008f
:020000040000fa
:04009400dc0100008b
:020000040000fa
:04009800dc01000087
:020000040000fa
:04009c00dc01000083
:020000040000fa
:0400a000dc0100007f
:020000040000fa
:0400a400dc0100007b
:020000040000fa
:0400a800dc01000077
:020000040000fa
:0400ac00dc01000073
:020000040000fa
:0400b000dc0100006f
:020000040000fa
:0400b400dc0100006b
:020000040000fa
:0400b800dc01000067
:020000040000fa
:0400bc00dc01000063
:020000040000fa
:0400c000dc0100005f
:020000040000fa
:0400c400dc0100005b
:020000040000fa
:0400c800dc01000057
:020000040000fa
:0400cc00dc01000053
:020000040000fa
:0400d000dc0100004f
:020000040000fa
:0400d400dc0100004b
:020000040000fa
:0400d800dc01000047
:020000040000fa
:04010800dc01000016
:020000040000fa
:04010c00dc01000012
:020000040000fa
:04011000dc0100000e
:020000040000fa
:04011400dc0100000a
:020000040000fa
:04011800dc01000006
:020000040000fa
:04011c00dc01000002
:020000040000fa
:04012000dc010000fe
:020000040000fa
:04012400dc010000fa
:020000040000fa
:04012800dc010000f6
:020000040000fa
:04012c00dc010000f2
:020000040000fa
:04013000dc010000ee
:020000040000fa
:04013400dc010000ea
:020000040000fa
:04013800dc010000e6
:020000040000fa
:04013c00dc010000e2
:020000040000fa
:04014000dc010000de
:020000040000fa
:04014400dc010000da
:020000040000fa
:04014800dc010000d6
:020000040000fa
:04014c00dc010000d2
:020000040000fa
:04015000dc010000ce
:020000040000fa
:04015400dc010000ca
:020000040000fa
:04015800dc010000c6
:020000040000fa
:04015c00dc010000c2
:020000040000fa
:04016000dc010000be
:020000040000fa
:04016400dc010000ba
:020000040000fa
:04016800dc010000b6
:020000040000fa
:04016c00dc010000b2
:020000040000fa
:04017000dc010000ae
:020000040000fa
:04017400dc010000aa
:020000040000fa
:04017800dc010000a6
:020000040000fa
:04017c00dc010000a2
:020000040000fa
:04018000dc0100009e
:020000040000fa
:04018400dc0100009a
:020000040000fa
:04018800dc01000096
:020000040000fa
:04018c00dc01000092
:020000040000fa
:04019000dc0100008e
:020000040000fa
:04019400dc0100008a
:020000040000fa
:04019800dc01000086
:020000040000fa
:04019c00dc01000082
:020000040000fa
:0401a000dc0100007e
:020000040000fa
:0401a400dc0100007a
:020000040000fa
:0401a800dc01000076
:020000040000fa
:0401ac00dc01000072
:020000040000fa
:0401b000dc0100006e
:020000040000fa
:0401b400dc0100006a
:020000040000fa
:0401b800dc01000066
:020000040000fa
:0401bc00dc01000062
:020000040000fa
:0401c000dc0100005e
:020000040000fa
:0401c400dc0100005a
:020000040000fa
:0401c800dc01000056
:020000040000fa
:0401cc00dc01000052
:020000040000fa
:0401d000dc0100004e
:020000040000fa
:0401d400dc0100004a
:020000040000fa
:0401d800dc01000046
:020000040000fa
:100200008f8820000ef720000e01880000000000fb
:10021000000020000000e000020032000001200089
:100220002002880014000700650007000000e000bd
:1002300003003a00803d200001002000020037004a
:100240000000200001002000810f7000010032003a
:1002500014000700000020000000e000020032004f
:100260000000020000000000f80202000000000090
:100270000040da000000fe004440a90060002000b9
:100280000000e0000300320000002000a001880010
:100290004440a800000006008a1f78008b1f7800e9
:1002a0000000060091018800800478000000eb0047
:1002b0001a003700e284440032a0b4009905ba0065
:1002c000e284440032a0b4009906ba00e2844400fb
:1002d00032a0b4000006eb00476fde00fd07b2005d
:1002e000636ce10003003a00ebff07000000eb0045
:1002f0000a003700606ce10004003a00005deb008a
:100300008b05e900fdff3e00040037006168e10055
:10031000010032000086eb000b00070019c7ba008d
:100320001905ba000e04e00003003a000a00e000dc
:10033000e0ff3a0000000600fe07b2009e018800c0
:100340008a047800f5ff3700395dba008b05e900b3
:100350000c003200295dba008b05e900080032006c
:100360000c00e00003003a00e284440032a0b40034
:10037000f5ff370019ddba008b05e900faff3a00f6
:100380008904e800e184440032a0b40000000600c3
:100390003400f800881f780008002000a8018800b9
:1003a0004f0478000000fa008460a9000080fa0081
:1003b0003400f900004006000040da000000fe00b2
:0403c0000000050034
:020000040000fa
:0c03c400526500006c6f00006a00000031
:020000040000fa
:1003d000d222ef0000000000e042a900000000006f
:1003e000e062a90000000000d442a8000000000064
:1003f000c8e2b70000000000d442a90000000000dd
:1004000000000600de22ef00d222ef00e042a8004a
:1004100000000000e062a90000000000d442a80033
:1004200000000000c8e2b70000000000d442a900ac
:100430000000000000000600801f7800de22ef00b0
:10044000d222ef00e042a90000000000c6e2ef0067
:1004500000000000e062a80000000000d442a800f4
:1004600000000000c8e2af003202040000000000fb
:10047000d442a90000000000e062a90000000000d2
:10048000c6a2ef0000000000c662ef0000000000fe
:100490004f007800000006000000eb00a002020000
:1004a0000000000000032000e8010200000000003e
:1004b000a00202000000000000032000e80102008a
:1004c00000000000a0020200000000000003200065
:1004d000e8010200000000001c0202000000000011
:1004e00080032000e8010200000000001c0202005e
:1004f0000000000080002000e80102000000000071
:100500001c0202000000000010002000e8010200b0
:10051000000000001c02020000000000600020003b
:10052000e8010200000000001c02020000000000c0
:10053000f0002000e80102000000000000000600ba
:10054000801f78000000eb000000e900feff3a0089
:100550004f00780000000600d702aa00000000004b
:100560008460a90000400600811f780080007800a8
:10057000314078000004e000060032001c02020056
:10058000000000000202020000000000b8020400a7
:1005900000000000cf007800000006008400a900e1
:1005a0008c00a800000006000000fa008268ef003e
:1005b0008368ef008468ef008568ef008668ef00cd
:1005c0008768ef000080fa00000006000000fa00d3
:1005d0000021ef0000002800100888002000200003
:1005e00020088800470007000080fa00000006008d
:1005f0000000fa002a000700a7ff0700f3ff07002a
:1006000027000700e8ff0700e4ff0700201e28007e
:10061000d5ff07004100070087ff070040ccb3006b
:100620006bff070084ff070082c8bf000043b000d3
:1006300074ff070080ff070083c8bf000043b000bd
:1006400070ff07007cff0700a0c3b3006dff070029
:1006500079ff070084c8bf000043b00069ff0700ae
:1006600075ff070085c8bf000043b00065ff0700a5
:1006700071ff0700a0c3b30062ff07006eff070011
:1006800086c8bf000043b0005eff07006aff070096
:1006900087c8bf000043b0005aff0700deff3700e5
:1006a0000000fa00ca22ef0000000000c622ef009e
:1006b00000000000c822ef00000000000080eb00f6
:1006c0004015880000000000d622ef000000000066
:1006d000d222ef0000000000d422ef000000000052
:1006e000d022ef00000000001000200060168800fb
:1006f00000000000ce22ef00000000000080fa00a1
:100700000000060061c4b30072c5b300237420006a
:1007100081417800824178004227a80005e1a800c5
:1007200000a0fe00a0c0b3008768ec008748e3008b
:100730001c003a008768ef00600020008668ec002b
:100740008648e30017003a008668ef00a00020000a
:100750008568ec008548e30012003a008568ef00e8
:10076000600020008468ec008448e3000d003a003b
:100770008468ef00a00020008228af004000200025
:100780008368ec008348e30006003a008368ef00ca
:10079000300020008268ec008248e30001003a004b
:1007a0008268ef008400a9000080fe00004006007f
:020000040000fa
:1007b000000800008000000000000000800f000022
:1007c0008000000000000000800800000800000019
:0807d000000000000000000021
:020000040000fa
:0407d800000000001d
:020000040000fa
:0200000401f009
:04000000e0b9000063
:020000040000fa
:0200000401f009
:04000400ff7f00007a
:020000040000fa
:0200000401f009
:04000800feff0000f7
:020000040000fa
:0200000401f009
:04001400ffff0000ea
:00000001FF
