:020000040000fa
:080000000001040000000000f3
:020000040000fa
:04000800c80100002b
:020000040000fa
:04000c00c801000027
:020000040000fa
:04001000c801000023
:020000040000fa
:04001400c80100001f
:020000040000fa
:04001800c80100001b
:020000040000fa
:04001c00c801000017
:020000040000fa
:04002000c801000013
:020000040000fa
:04002400c80100000f
:020000040000fa
:04002800c80100000b
:020000040000fa
:04002c00c801000007
:020000040000fa
:04003000c801000003
:020000040000fa
:040034007e03000047
:020000040000fa
:04003800c8010000fb
:020000040000fa
:04003c00c8010000f7
:020000040000fa
:04004000c8010000f3
:020000040000fa
:04004400c8010000ef
:020000040000fa
:04004800c8010000eb
:020000040000fa
:04004c00c8010000e7
:020000040000fa
:04005000c8010000e3
:020000040000fa
:04005400c8010000df
:020000040000fa
:04005800c8010000db
:020000040000fa
:04005c00c8010000d7
:020000040000fa
:04006000c8010000d3
:020000040000fa
:04006400c8010000cf
:020000040000fa
:04006800c8010000cb
:020000040000fa
:04006c00c8010000c7
:020000040000fa
:04007000c8010000c3
:020000040000fa
:04007400c8010000bf
:020000040000fa
:04007800c8010000bb
:020000040000fa
:04007c00c8010000b7
:020000040000fa
:04008000c8010000b3
:020000040000fa
:04008400c8010000af
:020000040000fa
:04008800c8010000ab
:020000040000fa
:04008c00c8010000a7
:020000040000fa
:04009000c8010000a3
:020000040000fa
:04009400c80100009f
:020000040000fa
:04009800c80100009b
:020000040000fa
:04009c00c801000097
:020000040000fa
:0400a000c801000093
:020000040000fa
:0400a400c80100008f
:020000040000fa
:0400a800c80100008b
:020000040000fa
:0400ac00c801000087
:020000040000fa
:0400b000c801000083
:020000040000fa
:0400b400c80100007f
:020000040000fa
:0400b800c80100007b
:020000040000fa
:0400bc00c801000077
:020000040000fa
:0400c000c801000073
:020000040000fa
:0400c400c80100006f
:020000040000fa
:0400c800c80100006b
:020000040000fa
:0400cc00c801000067
:020000040000fa
:0400d000c801000063
:020000040000fa
:0400d400c80100005f
:020000040000fa
:0400d800c80100005b
:020000040000fa
:04010800c80100002a
:020000040000fa
:04010c00c801000026
:020000040000fa
:04011000c801000022
:020000040000fa
:04011400c80100001e
:020000040000fa
:04011800c80100001a
:020000040000fa
:04011c00c801000016
:020000040000fa
:04012000c801000012
:020000040000fa
:04012400c80100000e
:020000040000fa
:04012800c80100000a
:020000040000fa
:04012c00c801000006
:020000040000fa
:04013000c801000002
:020000040000fa
:04013400c8010000fe
:020000040000fa
:04013800c8010000fa
:020000040000fa
:04013c00c8010000f6
:020000040000fa
:04014000c8010000f2
:020000040000fa
:04014400c8010000ee
:020000040000fa
:04014800c8010000ea
:020000040000fa
:04014c00c8010000e6
:020000040000fa
:04015000c8010000e2
:020000040000fa
:04015400c8010000de
:020000040000fa
:04015800c8010000da
:020000040000fa
:04015c00c8010000d6
:020000040000fa
:04016000c8010000d2
:020000040000fa
:04016400c8010000ce
:020000040000fa
:04016800c8010000ca
:020000040000fa
:04016c00c8010000c6
:020000040000fa
:04017000c8010000c2
:020000040000fa
:04017400c8010000be
:020000040000fa
:04017800c8010000ba
:020000040000fa
:04017c00c8010000b6
:020000040000fa
:04018000c8010000b2
:020000040000fa
:04018400c8010000ae
:020000040000fa
:04018800c8010000aa
:020000040000fa
:04018c00c8010000a6
:020000040000fa
:04019000c8010000a2
:020000040000fa
:04019400c80100009e
:020000040000fa
:04019800c80100009a
:020000040000fa
:04019c00c801000096
:020000040000fa
:0401a000c801000092
:020000040000fa
:0401a400c80100008e
:020000040000fa
:0401a800c80100008a
:020000040000fa
:0401ac00c801000086
:020000040000fa
:0401b000c801000082
:020000040000fa
:0401b400c80100007e
:020000040000fa
:0401b800c80100007a
:020000040000fa
:0401bc00c801000076
:020000040000fa
:0401c000c801000072
:020000040000fa
:0401c400c80100006e
:020000040000fa
:0401c800c80100006a
:020000040000fa
:0401cc00c801000066
:020000040000fa
:0401d000c801000062
:020000040000fa
:0401d400c80100005e
:020000040000fa
:0401d800c80100005a
:020000040000fa
:100200008f8820000ef720000e01880000000000fb
:10021000000020000000e000020032000001200089
:1002200020028800140007005b0007000000e000c7
:1002300003003a00603c200001002000020037006b
:100240000000200001002000810f7000010032003a
:1002500014000700000020000000e000020032004f
:100260000000020000000000e002020000000000a8
:100270000040da000000fe004440a9008000200099
:100280000000e0000300320000002000a001880010
:100290004440a800000006008a1f78008b1f7800e9
:1002a0000000060091018800800478000000eb0047
:1002b0001a003700e284440032a0b4009905ba0065
:1002c000e284440032a0b4009906ba00e2844400fb
:1002d00032a0b4000006eb00476fde00fd07b2005d
:1002e000636ce10003003a00ebff07000000eb0045
:1002f0000a003700606ce10004003a00005deb008a
:100300008b05e900fdff3e00040037006168e10055
:10031000010032000086eb000b00070019c7ba008d
:100320001905ba000e04e00003003a000a00e000dc
:10033000e0ff3a0000000600fe07b2009e018800c0
:100340008a047800f5ff3700395dba008b05e900b3
:100350000c003200295dba008b05e900080032006c
:100360000c00e00003003a00e284440032a0b40034
:10037000f5ff370019ddba008b05e900faff3a00f6
:100380008904e800e184440032a0b40000000600c3
:0c0390000040da000000fe000000050044
:020000040000fa
:10039c00526500006c6f00006a3a0000000000001b
:020000040000fa
:1003ac00d222ef0000000000d462a900000000007f
:1003bc00d522a90000000000d442a80000000000d3
:1003cc00c8e2b70000000000d442a9000000000001
:1003dc0000000600d222ef0000000000d462a8004a
:1003ec0000000000d522a90000000000d442a800a3
:1003fc0000000000c8e2b70000000000d442a900d1
:10040c000000000000000600801f7800d222ef00e0
:10041c00d462a90000000000c6e2ef00000000005a
:10042c00d522a80000000000d442a8000000000063
:10043c00c8e2af001e02040000000000d442a90074
:10044c0000000000d522a90000000000c6a2ef00a9
:10045c0000000000c662ef00000000004f007800b2
:10046c00000006000000eb008c02020000000000ff
:10047c0000032000d6010200000000008c020200e4
:10048c000000000000032000d60102000000000064
:10049c008c0202000000000000032000d6010200c4
:1004ac00000000000a02020000000000800320008f
:1004bc00d6010200000000000a0202000000000049
:1004cc0080002000d6010200000000000a02020099
:1004dc000000000010002000d60102000000000007
:1004ec000a0202000000000060002000d601020099
:1004fc00000000000a02020000000000f0002000d2
:10050c00d60102000000000000000600801f7800e9
:10051c000000eb000000e900feff3a004f007800fd
:10052c0000000600811f78008000780031407800c0
:10053c000004e000060032000a0202000000000085
:10054c00f0010200000000009c020400000000000a
:10055c00cf007800000006000000fa0020c0b300b5
:10056c0082e8b70030c0b30083e8b70050c0b300d6
:10057c0084e8b70080c0b30085e8b70030c0b30092
:10058c0086e8b7008768ef000080fa0000000600dc
:10059c000000fa000021ef0000002800100888007d
:1005ac002000200020088800460007000080fa0088
:1005bc00000006000a00fa00a0c3b3002047980010
:1005cc00a0c3b300504798000040eb00004f9800c8
:1005dc0020000700a3ff0700edff0700360007000f
:1005ec00ddff0700e01c2800ceff07003e000700df
:1005fc0085ff070040ccb30069ff070082c8bf002d
:10060c000043b000004f780083c8bf000043b00027
:10061c001047980084c8bf000043b00030479800d2
:10062c0085c8bf000043b0004047980086c8bf0093
:10063c000043b0006047980087c8bf000043b0007b
:10064c007047980070ff07000e007800b5ff070098
:10065c00e7ff37000000fa00ca22ef00000000009c
:10066c00c622ef0000000000c822ef0000000000ce
:10067c000080eb004015880000000000d622ef003f
:10068c0000000000d222ef0000000000d422ef0096
:10069c0000000000d022ef00000000000080eb0002
:1006ac006016880000000000ce22ef000000000061
:1006bc000080fa00000006008460a9008c60a8008d
:1006cc000000060000a0fe0061c4b30072c5b300b8
:1006dc002374200081497800824978004227a800c1
:1006ec000080fe000000060005e1a80000000600e6
:1006fc00801f7800a0c0b3008768ec008748e30037
:10070c001c003a008768ef00600020008668ec004f
:10071c008648e30017003a008668ef00a00020002e
:10072c008568ec008548e30012003a008568ef000c
:10073c00600020008468ec008448e3000d003a005f
:10074c008468ef00a00020008228af004000200049
:10075c008368ec008348e30006003a008368ef00ee
:10076c00300020008268ec008248e30001003a006f
:10077c008268ef008460a9004f00780000400600fa
:020000040000fa
:10078c00000800008000000000000000800f000046
:10079c00800000000000000080080000080000003d
:0807ac00000000000000000045
:020000040000fa
:0407b4000000000041
:020000040000fa
:0200000401f009
:04000000e0b9000063
:020000040000fa
:0200000401f009
:04000400ff7f00007a
:020000040000fa
:0200000401f009
:04000800feff0000f7
:020000040000fa
:0200000401f009
:04001400ffff0000ea
:00000001FF
