:0400000074EF09F0A0
:1000080000C016F001C015F0E1CF17F0E2CF18F0EC
:100018009EAAD4D1C4EC05F000C07FF449D1196A76
:1000280004017F514F0A02E1010E1C6F7F51450AFE
:1000380002E10A0E1C6F7F516E0A02E1140E1C6F5A
:100048007F51460A02E11E0E1C6F7F51410A02E1F0
:10005800280E1C6F7F512B0A02E1360E1C6F7F5150
:10006800720A02E1320E1C6F7F513E0A02E1360E1F
:100078001C6FA4D17F514B0A05E1010E196E020EC7
:100088001C6F01D01C6B9AD17F51520A03E10B0EF1
:100098001C6F01D01C6B92D17F51520A03E10C0EE8
:1000A8001C6F01D01C6B8AD17F514F0A03E10D0EE2
:1000B8001C6F01D01C6B82D17F51520A05E1020EE0
:1000C800196E020E1C6F01D01C6B78D17F516F0A1C
:1000D80003E1150E1C6F01D01C6B70D17F51200AF3
:1000E80003E1160E1C6F01D01C6B68D17F51630AA7
:1000F80003E1170E1C6F01D01C6B60D17F51680A99
:1001080003E1180E1C6F01D01C6B58D17F51610A96
:1001180003E1190E1C6F01D01C6B50D17F516E0A80
:1001280003E11A0E1C6F01D01C6B48D17F51670A7E
:1001380003E11B0E1C6F01D01C6B40D17F51650A77
:1001480005E1030E196E020E1C6F01D01C6B36D12F
:100158007F51410A03E11F0E1C6F01D01C6B2ED189
:100168007F51490A03E1200E1C6F01D01C6B26D178
:100178007F514C0A05E1040E196E020E1C6F01D066
:100188001C6B1CD17F51540A03E1290E1C6F01D04E
:100198001C6B14D17F512B0A03E12A0E1C6F01D06E
:1001A8001C6B0CD17F51430A03E12B0E1C6F01D04D
:1001B8001C6B04D17F51490A03E12C0E1C6F01D03E
:1001C8001C6BFCD07F51460A03E12D0E1C6F01D039
:1001D8001C6BF4D07F51530A03E12E0E1C6F01D023
:1001E8001C6BECD07F51520A03E12F0E1C6F01D01B
:1001F8001C6BE4D07F510A0A04E1300E1C6F1B6BA4
:1002080005D07F510D0A01E101D01C6BD7D07F5179
:100218000D0A05E1030E1C6F010E196E0BD0210E9D
:10022800E16E040EE26E1B51E126D8B0E22A7FC4CB
:10023800E6FF1B2BC3D07F51650A03E1330E1C6F09
:1002480001D01C6BBBD07F51610A03E1340E1C6FD7
:1002580001D01C6BB3D07F51640A03E1350E1C6FCB
:1002680001D01C6BABD07F51790A05E1050E196EE0
:10027800020E1C6F01D01C6BA1D01C6B060E196EF0
:10028800010E5B6F060E5A6F99D07F510D0A03E17C
:10029800030E1C6F01D01C6B91D07F510A0A04E138
:1002A800010E5B6F19C05AF41C6B88D01C6B86D08A
:1002B80004011C51000AD8B4B2D61C51010AD8B4A2
:1002C800D9D61C510A0AD8B4DFD61C510B0AD8B4A7
:1002D800E3D61C510C0AD8B4E7D61C510D0AD8B481
:1002E800EBD61C51140AD8B4F1D61C51150AD8B44F
:1002F800F5D61C51160AD8B4F9D61C51170AD8B429
:10030800FDD61C51180AD8B401D71C51190AD8B403
:1003180005D71C511A0AD8B409D71C511B0AD8B4DE
:100328000DD71C511E0AD8B413D71C511F0AD8B4B4
:1003380017D71C51200AD8B41BD71C51280AD8B487
:1003480021D71C51290AD8B425D71C512A0AD8B458
:1003580029D71C512B0AD8B42DD71C512C0AD8B434
:1003680031D71C512D0AD8B435D71C512E0AD8B410
:1003780039D71C512F0AD8B43DD71C51300AD8B4EC
:1003880046D71C51320AD8B456D71C51330AD8B4B0
:100398005AD71C51340AD8B45ED71C51350AD8B480
:1003A80062D71C51360AD8B468D71C51020AD8B48F
:1003B8006CD71C51030AD8B470D778D79E9A16C048
:1003C80000F015C001F017C0E1FF18C0E2FF1100EE
:1003D8003A0E0C6E230E0D6E0D2EFED70C2EFCD78A
:0203E800120001
:0A03EA00850E0D6E0D2EFED71200D9
:0C03F400020E0D6E0D2EFED70000120050
:10040000086A096A100E0C6E013408360936045069
:10041000085E0550D8A0053C095ED8B007D004504E
:1004200008260550D8B0053C0926D890003601367C
:060430000C2EEAD71200B9
:1004360004017EBF02D08A9601D08A867EBD02D094
:100446008A9401D08A847EBB02D08A9201D08A82A5
:100456007EB902D08A9001D08A8055B102D08A88AE
:1004660001D08A988A8AC3DF8A9A7EB702D08A9692
:1004760001D08A867EB502D08A9401D08A847EB362
:1004860002D08A9201D08A827EB102D08A9001D0AF
:100496008A8055B102D08A8801D08A988A8AA7DFD5
:0E04A6008A9A55A102D095DF01D09CDF12008A
:0E04B400ACB202D00000FCD77EC4ADFF120037
:1004C20004017B6B050E7B5D0AE27B517925E16EAF
:1004D200000E7A21E26E200EE66E7B2BF3D77B5163
:1004E2007925E16E000E7A21E26EE66A7B077B5186
:1004F20079257C6F000E7A217D6F0A0E046E000E44
:10050200056E77C400F078C401F079DF08C000F00E
:1005120009C001F0300E00267CC4E1FF7DC4E2FF79
:1005220000C0E6FF0A0E046E000E056E77C400F0EE
:1005320078C401F064DF00C077F401C078F4000EE3
:10054200011802E1000E001801E102D07B07CFD7AB
:02055200120095
:0E0554000401559177C47EF46CDF55811200CE
:1005620077C402F078C403F002C000F003C001F0C7
:10057200024A032A00C0E9FF01C0EAFFEE5201E08D
:10058200F3D704017751025C006E78510358016E73
:0A059200010E005E000E015A120077
:10059C0004017A6B77C4E9FF78C4EAFFEECF79F4F3
:1005AC007951000A0EE079C47EF47EDF04017A2BC7
:1005BC007A517725E96E000E7821EA6EEECF79F448
:0405CC00EFD7120053
:1005D0006DC404F06EC405F004C002F005C003F061
:1005E000044A052A6FC400F070C401F004016F4B87
:1005F000702B00C0E9FF01C0EAFF02C0E1FF03C0A9
:10060000E2FFEECFE6FF02C0E9FF03C0EAFFEE52D1
:0E06100001E0E2D76DC400F06EC401F01200EC
:10061E001A0E0401776F020E786FB9DF180E776F1E
:10062E00020E786FB4DF5C0E776F040E786FAFDF5B
:10063E000D0E7E6F38DF0A0E04017E6F34DF050E5D
:10064E000B6E0F0E0C6EF10E0D6E0D2EFED70C2EC8
:10065E00FCD70B2EFAD7270E0401776F020E786F98
:10066E0096DF090E0B6E1E0E0C6EE40E0D6E0D2E29
:10067E00FED70C2EFCD70B2EFAD70000F00E776F9C
:10068E00010E786F84DF790E776F000E786F7FDF43
:10069E005C0E776F040E786F7ADF0D0E7E6F03DFC0
:1006AE000A0E04017E6FFFDE050E0B6E0F0E0C6E32
:1006BE00F10E0D6E0D2EFED70C2EFCD70B2EFAD78B
:1006CE00270E0401776F020E786F61DF090E0B6E35
:1006DE001E0E0C6EE40E0D6E0D2EFED70C2EFCD7DC
:1006EE000B2EFAD700007B0E776F000E786F4FDF60
:1006FE00880E776F000E786F4ADF5C0E776F040EF0
:10070E00786F45DF0D0E7E6FCEDE0A0E04017E6F12
:10071E00CADE050E0B6E0F0E0C6EF10E0D6E0D2E4B
:10072E00FED70C2EFCD70B2EFAD7270E0401776FAF
:10073E00020E786F2CDF090E0B6E1E0E0C6EE40E81
:10074E000D6E0D2EFED70C2EFCD70B2EFAD70000F9
:10075E00690E776F000E786F1ADF760E776F000EC8
:10076E00786F15DF5C0E776F040E786F10DF0D0E4D
:10077E007E6F99DE0A0E04017E6F95DE050E0B6EFE
:10078E000F0E0C6EF10E0D6E0D2EFED70C2EFCD72D
:10079E000B2EFAD7270E0401776F020E786FF7DE55
:0207AE00120037
:1007B00004016F6B706B6DC403F06EC404F06DC404
:1007C00005F06EC406F003C0E9FF04C0EAFFEE5076
:1007D000200A04E16F51701101E110D0010E6F6F1A
:1007E000000E706F03C0E9FF04C0EAFF05C0E1FF1F
:1007F00006C0E2FFEECFE6FF054A062A03C001F07D
:1008000004C002F0034A042A01C0E9FF02C0EAFF63
:10081000EE50000AD8E16DC400F06EC401F0120081
:100820006DC477F46EC478F49CDE00506D256F6F54
:1008300001506E21706F010E6F5F000E705B6FC410
:10084000E9FF70C4EAFFEE50200A07E16E51705DC7
:1008500002E16D516F5D01E3EED7010E6F25E16E90
:10086000000E7021E26EE66A6DC400F06EC401F005
:02087000120074
:100872006DC404F06EC405F004C0E9FF05C0EAFFD0
:10088200EE5203E0044A052AF7D704C002F005C07D
:1008920003F0044A052A6FC400F070C401F0040199
:1008A2006F4B702B00C0E9FF01C0EAFF02C0E1FFFD
:1008B20003C0E2FFEECFE6FF02C0E9FF03C0EAFF9A
:1008C200EE5201E0E2D76DC400F06EC401F01200F6
:1008D2000401736B746B6DC475F46EC476F4800E90
:1008E2006E19006E800E005C02E1000E6D5D0BE27F
:1008F200010E736F000E746F6D510008756F6EC438
:1009020076F4000E765775C477F476C478F46FC423
:1009120079F470C47AF4D4DD060E716F000E726F32
:10092200000E006E7251005C02E17151000819E282
:1009320071516F25E16E72517021E26E010E715D8F
:10094200006E000E7259016E00506F25E96E015063
:100952007021EA6EEECFE6FF010E715F000E725B50
:10096200DFD76FC4E1FF70C4E2FF200EE66E735161
:1009720074111AE0716B726B71516F25E96E7251CD
:100982007021EA6EEE50200A03E1714B722BF4D70C
:10099200010E715F000E725B71516F25E16E725133
:0A09A2007021E26E2D0EE66E1200C9
:1009AC0004015B5304E05B6B5AC400F001D0006A95
:0209BC00120027
:1009BE00060E0C6E2B0E0D6E0D2EFED70C2EFCD7CA
:0209CE00120015
:1009D00010D0800E04016D6F1AD0C00E6D6F17D04D
:1009E000940E6D6F14D0D40E6D6F11D0800E6D6F9C
:1009F0000ED004016D51010AECE06D51020AEDE0E8
:100A00006D51030AEDE06D51040AEDE0EFD76E057C
:100A1000006E6D51002600C06DF400C07EF40BDD49
:100A20005591716B71516F25E96E000E7021EA6E60
:100A3000EE520BE071516F25E96E000E7021EA6EE7
:0E0A4000EECF77F487DD712BEDD755811200D4
:100A4E006DC402F06EC403F070C400F071C401F006
:100A5E00010E0401705F000E715B0050011009E081
:100A6E0002C0E1FF03C0E2FF6FC4E6FF024A032AA1
:0C0A7E00EBD76DC400F06EC401F0120054
:100A8A000900F5CFE6FF0006FBE10106F9E11200D5
:100A9A008D80150E0B6E4B0E0C6EBE0E0D6E0D2E4E
:100AAA00FED70C2EFCD70B2EFAD700008D92150E0E
:100ABA000B6E4B0E0C6EBE0E0D6E0D2EFED70C2E4F
:100ACA00FCD70B2EFAD700008D82CB0E0B6EEC0EE4
:100ADA000C6E840E0D6E0D2EFED70C2EFCD70B2E2F
:060AEA00FAD70000120023
:100AF000939A939893909392939493968A9A8A98C0
:100B00008A968A948A928A9067DC66DC65DC8A829F
:100B10008A808A8A6FDC8A9A5FDC8A8A6BDC8A9A8E
:100B20005BDC8A8A67DC8A9A57DC8A908A8A62DC74
:100B30008A9A52DC8A8A5EDC8A9A8A928A868A8AB1
:100B400059DC8A9A49DC8A968A808A8A53DC8A9A96
:100B50008A908A8A4FDC8A9A3FDC8A8A4BDC8A9A9E
:100B60008A808A8A47DC8A9A37DC8A908A8A42DCC1
:100B70008A9A8A868A848A828A808A8A3BDC8A9ACE
:080B80002BDC04015581120079
:100B8800AECF01F0ABA202D0AB98AB8801C000F0A9
:020B9800120049
:100B9A00B40E0401566F040E576F7E0E586F040E82
:100BAA00596F880E496F0B0E4A6F000E4B6F000E7D
:100BBA004C6FFF0E4D6FFF0E4E6F000E4F6F000E03
:100BCA00506FFF0E516FFF0E526F000E536F000EE3
:100BDA00546FAC8A900EAB6E948E949C9EAA03D0EE
:080BEA00AECF00F0FBD71200B2
:100BF20066C4E9FF67C4EAFFEE5211E066C4E9FF8A
:100C020067C4EAFF68C4D9FF69C4DAFFEE50DE1890
:100C120006E10401664B672B684B692BE9D766C472
:100C2200E9FF67C4EAFF68C4D9FF69C4DAFFDE508E
:0C0C3200EE5C006E016A000E015A120018
:100C3E0066C404F067C405F004016A516B1124E028
:100C4E00010E6A5F000E6B5B04C002F005C003F07C
:100C5E00044A052A68C400F069C401F0684B692B88
:100C6E0000C0E9FF01C0EAFF02C0E1FF03C0E2FFDE
:100C7E00EECFE6FF02C0E9FF03C0EAFFEECF00F0C1
:100C8E00005201E101D0D8D76AC400F06BC401F064
:100C9E00010E6A5F000E6B5B0050011008E004C08D
:100CAE00E1FF05C0E2FFE66A044A052AEDD766C4F5
:080CBE0000F067C401F0120010
:100CC60004016C6B68C401F0010E006E015004E073
:100CD60000360090FF0FFBD700C06BF466C4E9FF37
:100CE60067C4EAFF0050EE14016E0152010ED8A44B
:100CF600000E006E6A51001A18E06951000804E2FD
:100D06005BDE5ADE6907F9D766C4E9FF67C4EAFF06
:100D16006B51EE14016E0152010ED8A4000E006E46
:100D26006A51001A02E0FF0E6C6F6CC400F01200EC
:100D3600020E04016D6F010E6E6FA40E6F6F010E31
:100D4600706F43DEB50E776F010E786F24DC0D0EE3
:100D56007E6F5AEC02F00A0E04017E6F5AEC02F026
:100D6600520E0B6E2B0E0C6E000E0D6E0D2EFED758
:100D76000C2EFCD70B2EFAD7000015DE000E000A4B
:100D860002E1050E0018DEE1290E0B6E960E0C6EC2
:100D96007F0E0D6E0D2EFED70C2EFCD70B2EFAD71E
:100DA600020E6D6F010E6E6F6F0E6F6F010E706F1C
:100DB6000CDE800E776F010E786FCEEC02F00D0E12
:100DC6007E6F5AEC02F00A0E04017E6F5AEC02F0B6
:100DD600520E0B6E2B0E0C6E000E0D6E0D2EFED7E8
:100DE6000C2EFCD70B2EFAD70000DDDD000E000A14
:100DF60002E1010E0018DDE1520E0B6E2B0E0C6E99
:100E0600000E0D6E0D2EFED70C2EFCD70B2EFAD72C
:100E16000000020E6D6F010E6E6F8C0E6F6F010E6D
:100E2600706FD3DDC90E776F010E786FCEEC02F0CE
:100E36000D0E7E6F5AEC02F00A0E04017E6F5AEC1C
:100E460002F0520E0B6E2B0E0C6E000E0D6E0D2E5A
:100E5600FED70C2EFCD70B2EFAD70000A4DD000E11
:100E6600000A02E1010E0018DDE1520E0B6E2B0E98
:100E76000C6E000E0D6E0D2EFED70C2EFCD70B2E13
:100E8600FAD70000020E6D6F010E6E6FD50E6F6FF2
:100E9600010E706F9ADDE60E776F010E786FCEEC5D
:100EA60002F0220E7E6F5AEC02F0BCC177F4BDC18F
:100EB60078F4CEEC02F0220E7E6F5AEC02F02C0E85
:100EC60004017E6F5AEC02F0220E04017E6F5AEC8A
:100ED60002F0BEC177F4BFC178F4CEEC02F0220E68
:100EE6007E6F5AEC02F00D0E04017E6F5AEC02F092
:100EF6000A0E04017E6F5AEC02F0290E0B6E960E56
:100F06000C6E7F0E0D6E0D2EFED70C2EFCD70B2E03
:100F1600FAD749DD000E000A02E1010E0018B2E11F
:100F2600290E0B6E960E0C6E7F0E0D6E0D2EFED7D5
:100F36000C2EFCD70B2EFAD7C00E776F010E786FEA
:100F4600CEEC02F00D0E7E6F5AEC02F00A0E040192
:100F56007E6F5AEC02F0290E0B6E960E0C6E7F0E0B
:100F66000D6E0D2EFED70C2EFCD70B2EFAD71BDDE1
:100F7600000E000A02E1010E0018DEE1290E0B6EDA
:100F8600960E0C6E7F0E0D6E0D2EFED70C2EFCD718
:100F96000B2EFAD7620E776F010E786FCEEC02F049
:100FA6000D0E7E6F5AEC02F00A0E04017E6F5AECAB
:100FB60002F0290E0B6E960E0C6E7F0E0D6E0D2E28
:100FC600FED70C2EFCD70B2EFAD7EDDC000E000A4E
:100FD60002E1010E0018DEE1290E0B6E960E0C6E74
:100FE6007F0E0D6E0D2EFED70C2EFCD70B2EFAD7CC
:100FF600020E6D6F010E6E6F230E6F6F010E706F16
:10100600E4DC340E776F010E786FCEEC02F00D0E35
:101016007E6F5AEC02F00A0E04017E6F5AEC02F063
:10102600290E0B6E960E0C6E7F0E0D6E0D2EFED7D4
:101036000C2EFCD70B2EFAD7B6DC000E000A02E106
:10104600010E0018D5E1290E0B6E960E0C6E7F0E62
:101056000D6E0D2EFED70C2EFCD70B2EFAD7460E94
:10106600776F010E786FCEEC02F00D0E7E6F5AECA4
:1010760002F00A0E04017E6F5AEC02F0290E0B6E86
:10108600960E0C6E7F0E0D6E0D2EFED70C2EFCD717
:101096000B2EFAD7210E04016D6F040E6E6F6F6B67
:1010A600100E706F000E716FCFDC010E6D6F010EAA
:1010B6006E6F0C0E6F6F010E706F87DC1A0E776FF6
:1010C600010E786FCEEC02F00D0E7E6F5AEC02F038
:1010D6000A0E04017E6F5AEC02F0290E0B6E960E74
:1010E6000C6E7F0E0D6E0D2EFED70C2EFCD70B2E22
:1010F600FAD759DC000E000A02E1010E001801E0E1
:10110600F8D7290E0B6E960E0C6E7F0E0D6E04012F
:101116000D2EFDD70C2EFBD70B2EF9D7020E6D6FB9
:10112600010E6E6F510E6F6F010E706F4EDC020E68
:101136006D6F010E6E6F2E0E6F6F040E706F45DCB5
:02114600120095
:10114800000178536EE1A40E0401776F000E786FEA
:10115800B1EC02F000501F2701502023DB0E776FFF
:10116800000E786FB1EC02F000501F2701502023C9
:101178008A0E776F000E786FB1EC02F000501F27CF
:10118800015020239A0E776F000E786FB1EC02F0B1
:101198001F5100262051012200C01FF401C020F475
:1011A80000C06DF401C06EF45C0E6F6F040E706FBA
:1011B80069EC04F05C0E6D6F040E6E6FD8EC03F0F2
:1011C800270E6D6F020E6E6FA40E6F6F000E706F9C
:1011D80039EC04F0270E6D6F020E6E6FDB0E6F6F29
:1011E800000E706F39EC04F0270E6D6F020E6E6FF3
:1011F8008A0E6F6F000E706F39EC04F0270E6D6F5A
:10120800020E6E6F9A0E6F6F000E706F39EC04F05D
:10121800270E6D6F020E6E6F10EC04F00FEC03F0EA
:1012280046D00001A3532AE0A36B8A0E0401776F0E
:10123800000E786FB1EC02F000501F2701502023F8
:101248009A0E776F000E786FB1EC02F000501F27EE
:1012580001502023270E6D6F020E6E6F8A0E6F6F7E
:10126800000E706F39EC04F0270E6D6F020E6E6F72
:101278009A0E6F6F000E706F39EC04F004011FC4F2
:101288006DF420C46EF45C0E6F6F040E706F69EC21
:1012980004F05C0E6D6F040E6E6FD8EC03F0270E31
:1012A8006D6F020E6E6F10EC04F00FEC03F0270E5A
:1012B8006D6F020E6E6F680E6F6F000E706FE8EC48
:1012C80002F01F6B206B050E0B6E0F0E0C6EF10EED
:1012D8000D6E0D2EFED70C2EFCD70B2EFAD7120052
:1012E8003CEC0CF004011F6B206B0F01386B396B61
:1012F8003A6B3B6B3C6B928292909690969204016B
:101308001C6B5B6B5A6B196A1B6B78EC05F0010E52
:101318007E6F1BEC02F00C0E7E6F1BEC02F0B886A1
:10132800B06A440EAF6EAC8434DC9D8AF28CF28EC7
:10133800010E7E6F1BEC02F0010E6D6F020E6E6FD8
:101348001A0E6F6F000E706FE8EC04F0020E6D6FEE
:10135800030E6E6F390E6F6F000E706FE8EC04F0BD
:101368004DEC05F0E4DC640E1C6F1B6B010E6D6F19
:10137800010E6E6F460E6F6F000E706FE8EC04F092
:10138800040E0A6E2C0E0B6EAF0E0C6E130E0D6E45
:101398000D2EFED70C2EFCD70B2EFAD70A2EF8D717
:1013A80000000000CDDE010E6D6F010E6E6F570E4E
:1013B8006F6F000E706FE8EC04F0010E0001786F9B
:1013C800800E0401666F0F0E676F010E686F010EC5
:1013D800696F010E6A6F73DC005204E0010E1D6F25
:1013E800000E1E6F1D511E1140E0800E666F0F0E1D
:1013F800676F010E686F010E696F6A6B60DC0052DF
:1014080034E09A0E666F000E676F290E686F000E43
:10141800696FF9EC05F00050011011E19A0E040112
:10142800666F000E676F310E686F000E696F080EE9
:101438006A6F000E6B6F1FEC06F0898010D00401F4
:101448009A0E666F000E676F9C0E686F010E696FCB
:10145800080E6A6F000E6B6F1FEC06F089901D6B0B
:0E1468001E6B010E0001A36F6BDEAAD7FFD72B
:1018780010EE19F0020E006E050E016E760EF66E71
:0E188800140EF76E000EF86E45EC05F012001F
:011476000075
:0F147700576946692045535020636C69636B00C9
:081486004F46463C2F703E006A
:08148E004F4E203C2F703E0080
:0D14960044656D6F204578616D706C6500D8
:1014A300436F6E6E65637420746F205354414950CB
:0114B3000038
:1014B400507265737320427574746F6E205241319B
:0114C4000027
:0114C5000026
:0D14C60041542B43495053454E443D3300E3
:0214D3002C00EB
:0114D5000016
:0214D6002C00E8
:0D14D80041542B43495053454E443D3200D2
:0214E5002C00D9
:1014E7003C703E204C454420524130206973200017
:0914F7004F46463C2F703E0000F8
:0115000000EA
:101501003C6120687265663D2268747470733A2F7D
:101511002F7777772E6D696B726F652E636F6D2FE5
:10152100223E4D696B726F456C656B74726F6E69AB
:071531006B613C2F613E00DD
:101538003C6831207374796C653D22636F6C6F72FF
:101548003A7265643B223E576946692045535020EC
:10155800636C69636B20626F6172643C2F68313E13
:011568000082
:0E15690047657474696E672053544149500001
:0915770041542B43494653520034
:1015800053657474696E67205365727665722E2E8A
:01159000005A
:1015910041542B4349505345525645523D312C3805
:0215A100300018
:0B15A30041542B43495053544F3F006C
:1015AE00202020202020202020202020202020202D
:0115BE00002C
:0D15BF0041542B434950535441545553009F
:1015CC0053746174696F6E206D6F64652E2E2E2EB0
:0115DC00000E
:0C15DD0041542B43574D4F44453D310015
:1015E9004D756C7469706C65436F6E6E20454E0065
:0815F9004F46463C2F703E00F6
:10160100526573657474696E67204D6F64756C659E
:0116110000D8
:0716120041542B5253540018
:02161900FD01D1
:02161B000B02C0
:09161D0041542B43574C4150008D
:0C16260041542B4349504D55583D3100B4
:101632004A6F696E696E672041502E2E2E2E2E2E15
:0116420000A7
:0A16430041542B43574A41503D002B
:0D164D0041542B43495053454E443D31005C
:0E165A004D696B726F45205075626C696300BC
:0D1668006D696B726F652E67756573740098
:021675002C0047
:0D16770041542B43495053454E443D300033
:101684000000000000000000000000000000000056
:101694000000000000000000000000000000000046
:1016A4000000000000000000000000000000000036
:1016B4000000000000000000000000000000000026
:1016C4000000000000000000000000000000000016
:1016D4000000000000000000000000000000000006
:1016E40000000000000000000000000000000000F6
:1016F40000000000000000000000000000000000E6
:1017040000000000000000000000000000000000D5
:1017140000000000000000000000000000000000C5
:1017240000000000000000000000000000000000B5
:1017340000000000000000000000000000000000A5
:101744000000000000000000000000000000000095
:101754000000000000000000000000000000000085
:101764000000000000000000000000000000000075
:101774000000000000000000000000000000000065
:101784000000000000000000000000000000000055
:101794000000000000000000000000000000000045
:1017A4000000000000000000000000000000000035
:1017B4000000000000000000000000000000000025
:1017C4000000000000000000000000000000000015
:1017D4000000000000000000000000000000000005
:1017E40000000000000000000000000000000000F5
:1017F40000000000000000000000000000000000E5
:1018040000000000000000000000000000000000D4
:1018140000000000000000000000000000000000C4
:1018240000000000000000000000000000000000B4
:1018340000000000000000000000000000000000A4
:101844000000000000000000000000000000000094
:101854000000000000000000000000000000000084
:101864000000000000000000000000000000000074
:041874000000000070
:020000040030CA
:0D000100231F3CFFBF81FF0FC00FE00F4029
:00000001FF
