:020000040000fa
:080000000001040000000000f3
:020000040000fa
:04000800c80100002b
:020000040000fa
:04000c00c801000027
:020000040000fa
:04001000c801000023
:020000040000fa
:04001400c80100001f
:020000040000fa
:04001800c80100001b
:020000040000fa
:04001c00c801000017
:020000040000fa
:04002000c801000013
:020000040000fa
:04002400c80100000f
:020000040000fa
:04002800c80100000b
:020000040000fa
:04002c00c801000007
:020000040000fa
:04003000c801000003
:020000040000fa
:04003400c8010000ff
:020000040000fa
:04003800c8010000fb
:020000040000fa
:04003c00c8010000f7
:020000040000fa
:04004000c8010000f3
:020000040000fa
:04004400c8010000ef
:020000040000fa
:04004800c8010000eb
:020000040000fa
:04004c00ae030000ff
:020000040000fa
:04005000c8010000e3
:020000040000fa
:04005400c8010000df
:020000040000fa
:04005800c8010000db
:020000040000fa
:04005c00c8010000d7
:020000040000fa
:04006000c8010000d3
:020000040000fa
:04006400c8010000cf
:020000040000fa
:04006800c8010000cb
:020000040000fa
:04006c00c8010000c7
:020000040000fa
:04007000c8010000c3
:020000040000fa
:04007400c8010000bf
:020000040000fa
:04007800c8010000bb
:020000040000fa
:04007c00c8010000b7
:020000040000fa
:04008000c8010000b3
:020000040000fa
:04008400c8010000af
:020000040000fa
:04008800c8010000ab
:020000040000fa
:04008c00c8010000a7
:020000040000fa
:04009000c8010000a3
:020000040000fa
:04009400c80100009f
:020000040000fa
:04009800c80100009b
:020000040000fa
:04009c00c801000097
:020000040000fa
:0400a000c801000093
:020000040000fa
:0400a400c80100008f
:020000040000fa
:0400a800c80100008b
:020000040000fa
:0400ac00c801000087
:020000040000fa
:0400b000c801000083
:020000040000fa
:0400b400c80100007f
:020000040000fa
:0400b800c80100007b
:020000040000fa
:0400bc00c801000077
:020000040000fa
:0400c000c801000073
:020000040000fa
:0400c400c80100006f
:020000040000fa
:0400c800c80100006b
:020000040000fa
:0400cc00c801000067
:020000040000fa
:0400d000c801000063
:020000040000fa
:0400d400c80100005f
:020000040000fa
:0400d800c80100005b
:020000040000fa
:04010800c80100002a
:020000040000fa
:04010c00c801000026
:020000040000fa
:04011000c801000022
:020000040000fa
:04011400c80100001e
:020000040000fa
:04011800c80100001a
:020000040000fa
:04011c00c801000016
:020000040000fa
:04012000c801000012
:020000040000fa
:04012400c80100000e
:020000040000fa
:04012800c80100000a
:020000040000fa
:04012c00c801000006
:020000040000fa
:04013000c801000002
:020000040000fa
:04013400c8010000fe
:020000040000fa
:04013800c8010000fa
:020000040000fa
:04013c00c8010000f6
:020000040000fa
:04014000c8010000f2
:020000040000fa
:04014400c8010000ee
:020000040000fa
:04014800c8010000ea
:020000040000fa
:04014c00c8010000e6
:020000040000fa
:04015000c8010000e2
:020000040000fa
:04015400c8010000de
:020000040000fa
:04015800c8010000da
:020000040000fa
:04015c00c8010000d6
:020000040000fa
:04016000c8010000d2
:020000040000fa
:04016400c8010000ce
:020000040000fa
:04016800c8010000ca
:020000040000fa
:04016c00c8010000c6
:020000040000fa
:04017000c8010000c2
:020000040000fa
:04017400c8010000be
:020000040000fa
:04017800c8010000ba
:020000040000fa
:04017c00c8010000b6
:020000040000fa
:04018000c8010000b2
:020000040000fa
:04018400c8010000ae
:020000040000fa
:04018800c8010000aa
:020000040000fa
:04018c00c8010000a6
:020000040000fa
:04019000c8010000a2
:020000040000fa
:04019400c80100009e
:020000040000fa
:04019800c80100009a
:020000040000fa
:04019c00c801000096
:020000040000fa
:0401a000c801000092
:020000040000fa
:0401a400c80100008e
:020000040000fa
:0401a800c80100008a
:020000040000fa
:0401ac00c801000086
:020000040000fa
:0401b000c801000082
:020000040000fa
:0401b400c80100007e
:020000040000fa
:0401b800c80100007a
:020000040000fa
:0401bc00c801000076
:020000040000fa
:0401c000c801000072
:020000040000fa
:0401c400c80100006e
:020000040000fa
:0401c800c80100006a
:020000040000fa
:0401cc00c801000066
:020000040000fa
:0401d000c801000062
:020000040000fa
:0401d400c80100005e
:020000040000fa
:0401d800c80100005a
:020000040000fa
:100200002f9320000ef720000e0188000000000050
:10021000000020000000e000020032000001200089
:1002200020028800140007005b0007000000e000c7
:1002300003003a00e02f20000100200002003700f8
:100240000000200001002000810f7000010032003a
:1002500014000700000020000000e000020032004f
:100260000000020000000000ce01020000000000bb
:100270000040da000000fe004440a9000000200019
:100280000000e0000300320000002000a001880010
:100290004440a800000006008a1f78008b1f7800e9
:1002a0000000060091018800800478000000eb0047
:1002b0001a003700e284440032a0b4009905ba0065
:1002c000e284440032a0b4009906ba00e2844400fb
:1002d00032a0b4000006eb00476fde00fd07b2005d
:1002e000636ce10003003a00ebff07000000eb0045
:1002f0000a003700606ce10004003a00005deb008a
:100300008b05e900fdff3e00040037006168e10055
:10031000010032000086eb000b00070019c7ba008d
:100320001905ba000e04e00003003a000a00e000dc
:10033000e0ff3a0000000600fe07b2009e018800c0
:100340008a047800f5ff3700395dba008b05e900b3
:100350000c003200295dba008b05e900080032006c
:100360000c00e00003003a00e284440032a0b40034
:10037000f5ff370019ddba008b05e900faff3a00f6
:100380008904e800e184440032a0b40000000600c3
:0c0390000040da000000fe000000050044
:020000040000fa
:10039c000000fa00350007002100070027000700c5
:1003ac002d0007000de2a8000f42a80017e2a800dc
:1003bc001942a800510007005f00070080042000cc
:1003cc0080108800f004200080108800c0042000f9
:1003dc00801088001004200080108800e2000700c4
:1003ec007800070000000000feff37000200fa0052
:1003fc00004f780001003700db0007001e80fb0077
:10040c000000ea004f00de00004078001e4fe900bb
:10041c000004e000f8ff3a000080fa00000006003b
:10042c000000fa000c22ef00000028007010880079
:10043c001422ef000080fa00000006000000fa0011
:10044c001622ef0000002800c01088001e22ef00ca
:10045c000080fa00000006000000fa008520a900c8
:10046c008d20a8000080fa00000006000000fa00b1
:10047c00c822ef0000000000ca22ef0000000000bc
:10048c00c622ef00000000000080eb004015880041
:10049c0000000000c222ef0000000000c422ef00a8
:1004ac0000000000c162a90000000000d422ef008f
:1004bc0000000000d622ef0000000000d202a900cc
:1004cc0000000000e022ef0000000000e222ef003c
:1004dc0000000000de42a80000000000de62a9005f
:1004ec0000000000de82a80000000000dea2a900cf
:1004fc00000000000080fa00000006000000fa0076
:10050c00c362a8000000000097000700d402a800f6
:10051c000000000094000700d402a90000000000b5
:10052c0091000700d402a800000000008e00070014
:10053c000080fa00000006000000fa000080200095
:10054c007300070050c0b300a8ff07009080200084
:10055c006f00070050c0b300a4ff0700708120009b
:10056c006b00070050c0b300a0ff070050822000b2
:10057c006700070050c0b3009cff0700b084200048
:10058c006300070050c0b30098ff0700608520008f
:10059c005f00070050c0b30094ff070000882000e4
:1005ac005b00070050c0b30090ff0700f0882000ec
:1005bc005700070050c0b3008cff07000080fa0002
:1005cc00000006000000fa00e0892000500007003f
:1005dc0050c0b30085ff0700208a20004c000700a4
:1005ec0050c0b30081ff07000080fa000000060035
:020000040000fa
:1005fc00b00800008000000000000000800f000028
:10060c008000000000000000300900000200000023
:10061c000000000000080000b00000000200000014
:10062c0041542b00525354000d0a000041542b002e
:10063c0043574d004f4445003d310d000a00410029
:10064c00542b430049504d0055583d00300d0a00c5
:10065c00004154002b4357004a4150003d225200a8
:10066c0045445f005749460049222c002250410066
:10067c00535357004f5244005f57490046492200dc
:10068c000d0a000041542b004349460053520d0003
:10069c000a004100542b430049505300544152006e
:1006ac00543d220054435000222c220049505f003c
:1006bc00434f4d00505522002c5054004f5f5300b7
:1006cc004552560045520d000a004100542b430080
:1006dc0049504d004f4445003d310d000a0041008a
:1006ec00542b430049505300454e44003d340d00fb
:1006fc000a002b002b2b000041542b0043495000c7
:10070c00434c4f0053450d000a0000000000000050
:020000040000fa
:10071c00801f7800010078008000eb00b04078006a
:10072c000104e000080032008540a9008110880017
:10073c00000000008540ae00a00304000000000093
:10074c0092030400000000004f0078000000060037
:10075c00801f780090108000d01088008520a900a0
:10076c004f00780000400600801f7800811f780041
:10077c00a10020000000eb000000e900feff3a00a1
:10078c008100e900fbff3a00cf0078004f007800b1
:04079c000000060053
:020000040000fa
:0407a0000000000055
:020000040000fa
:0200000401f009
:04000000e0b9000063
:020000040000fa
:0200000401f009
:04000400ff7f00007a
:020000040000fa
:0200000401f009
:04000800feff0000f7
:020000040000fa
:0200000401f009
:04001400ffff0000ea
:00000001FF
