:020000040000fa
:080000000001040000000000f3
:020000040000fa
:04000800c80100002b
:020000040000fa
:04000c00c801000027
:020000040000fa
:04001000c801000023
:020000040000fa
:04001400c80100001f
:020000040000fa
:04001800c80100001b
:020000040000fa
:04001c00c801000017
:020000040000fa
:04002000c801000013
:020000040000fa
:04002400c80100000f
:020000040000fa
:04002800c80100000b
:020000040000fa
:04002c00c801000007
:020000040000fa
:04003000c801000003
:020000040000fa
:04003400c8010000ff
:020000040000fa
:04003800c8010000fb
:020000040000fa
:04003c00c8010000f7
:020000040000fa
:04004000c8010000f3
:020000040000fa
:04004400c8010000ef
:020000040000fa
:04004800c8010000eb
:020000040000fa
:04004c00e8030000c5
:020000040000fa
:04005000c8010000e3
:020000040000fa
:04005400c8010000df
:020000040000fa
:04005800c8010000db
:020000040000fa
:04005c00c8010000d7
:020000040000fa
:04006000c8010000d3
:020000040000fa
:04006400c8010000cf
:020000040000fa
:04006800c8010000cb
:020000040000fa
:04006c00c8010000c7
:020000040000fa
:04007000c8010000c3
:020000040000fa
:04007400c8010000bf
:020000040000fa
:04007800c8010000bb
:020000040000fa
:04007c00c8010000b7
:020000040000fa
:04008000c8010000b3
:020000040000fa
:04008400c8010000af
:020000040000fa
:04008800f20300007f
:020000040000fa
:04008c00c8010000a7
:020000040000fa
:04009000c8010000a3
:020000040000fa
:04009400c80100009f
:020000040000fa
:04009800c80100009b
:020000040000fa
:04009c00c801000097
:020000040000fa
:0400a000c801000093
:020000040000fa
:0400a400c80100008f
:020000040000fa
:0400a800c80100008b
:020000040000fa
:0400ac00c801000087
:020000040000fa
:0400b000c801000083
:020000040000fa
:0400b400c80100007f
:020000040000fa
:0400b800c80100007b
:020000040000fa
:0400bc00c801000077
:020000040000fa
:0400c000c801000073
:020000040000fa
:0400c400c80100006f
:020000040000fa
:0400c800c80100006b
:020000040000fa
:0400cc00c801000067
:020000040000fa
:0400d000c801000063
:020000040000fa
:0400d400c80100005f
:020000040000fa
:0400d800c80100005b
:020000040000fa
:04010800c80100002a
:020000040000fa
:04010c00c801000026
:020000040000fa
:04011000c801000022
:020000040000fa
:04011400c80100001e
:020000040000fa
:04011800c80100001a
:020000040000fa
:04011c00c801000016
:020000040000fa
:04012000c801000012
:020000040000fa
:04012400c80100000e
:020000040000fa
:04012800c80100000a
:020000040000fa
:04012c00c801000006
:020000040000fa
:04013000c801000002
:020000040000fa
:04013400c8010000fe
:020000040000fa
:04013800c8010000fa
:020000040000fa
:04013c00c8010000f6
:020000040000fa
:04014000c8010000f2
:020000040000fa
:04014400c8010000ee
:020000040000fa
:04014800c8010000ea
:020000040000fa
:04014c00c8010000e6
:020000040000fa
:04015000c8010000e2
:020000040000fa
:04015400c8010000de
:020000040000fa
:04015800c8010000da
:020000040000fa
:04015c00c8010000d6
:020000040000fa
:04016000c8010000d2
:020000040000fa
:04016400c8010000ce
:020000040000fa
:04016800c8010000ca
:020000040000fa
:04016c00c8010000c6
:020000040000fa
:04017000c8010000c2
:020000040000fa
:04017400c8010000be
:020000040000fa
:04017800c8010000ba
:020000040000fa
:04017c00c8010000b6
:020000040000fa
:04018000c8010000b2
:020000040000fa
:04018400c8010000ae
:020000040000fa
:04018800c8010000aa
:020000040000fa
:04018c00c8010000a6
:020000040000fa
:04019000c8010000a2
:020000040000fa
:04019400c80100009e
:020000040000fa
:04019800c80100009a
:020000040000fa
:04019c00c801000096
:020000040000fa
:0401a000c801000092
:020000040000fa
:0401a400c80100008e
:020000040000fa
:0401a800c80100008a
:020000040000fa
:0401ac00c801000086
:020000040000fa
:0401b000c801000082
:020000040000fa
:0401b400c80100007e
:020000040000fa
:0401b800c80100007a
:020000040000fa
:0401bc00c801000076
:020000040000fa
:0401c000c801000072
:020000040000fa
:0401c400c80100006e
:020000040000fa
:0401c800c80100006a
:020000040000fa
:0401cc00c801000066
:020000040000fa
:0401d000c801000062
:020000040000fa
:0401d400c80100005e
:020000040000fa
:0401d800c80100005a
:020000040000fa
:100200002f9320000ef720000e0188000000000050
:10021000000020000000e000020032000001200089
:1002200020028800140007005b0007000000e000c7
:1002300003003a0080332000010020000200370054
:100240000000200001002000810f7000010032003a
:1002500014000700000020000000e000020032004f
:100260000000020000000000d401020000000000b5
:100270000040da000000fe004440a90060002000b9
:100280000000e0000300320000002000a001880010
:100290004440a800000006008a1f78008b1f7800e9
:1002a0000000060091018800800478000000eb0047
:1002b0001a003700e284440032a0b4009905ba0065
:1002c000e284440032a0b4009906ba00e2844400fb
:1002d00032a0b4000006eb00476fde00fd07b2005d
:1002e000636ce10003003a00ebff07000000eb0045
:1002f0000a003700606ce10004003a00005deb008a
:100300008b05e900fdff3e00040037006168e10055
:10031000010032000086eb000b00070019c7ba008d
:100320001905ba000e04e00003003a000a00e000dc
:10033000e0ff3a0000000600fe07b2009e018800c0
:100340008a047800f5ff3700395dba008b05e900b3
:100350000c003200295dba008b05e900080032006c
:100360000c00e00003003a00e284440032a0b40034
:10037000f5ff370019ddba008b05e900faff3a00f6
:100380008904e800e184440032a0b40000000600c3
:0c0390000040da000000fe000000050044
:020000040000fa
:0c039c00484f00004c4100000000000031
:020000040000fa
:1003a8000000fa00310007001b00070021000700c9
:1003b800270007000de2a8000f42a80017e2a800d6
:1003c8001942a8004d0007005b000700e01c280048
:1003d800ed0007000b010700920007000000000075
:1003e800feff37000200fa00004f780001003700d6
:1003f800040107001e80fb000000ea004f00de0039
:10040800004078001e4fe9000004e000f8ff3a00c1
:100418000080fa00000006000000fa000c22ef003d
:1004280000002800701088001422ef000080fa00f5
:10043800000006000000fa001622ef000000280065
:10044800c01088001e22ef000080fa00000006009d
:100458000000fa008520a9008d20a8008700a900c7
:100468008f00a8000080fa00000006000000fa00d3
:10047800c822ef0000000000ca22ef0000000000c0
:10048800c622ef00000000000080eb004015880045
:1004980000000000c222ef0000000000c422ef00ac
:1004a80000000000c162a90000000000d422ef0093
:1004b80000000000d622ef0000000000d202a900d0
:1004c80000000000e022ef0000000000e222ef0040
:1004d80000000000de42a80000000000de62a90063
:1004e80000000000de82a80000000000dea2a900d3
:1004f800000000000080fa00000006000000fa007a
:10050800c362a80000000000be000700d402a800d3
:1005180000000000bb000700d402a9000000000092
:10052800b8000700d402a80000000000b5000700ca
:100538000080fa00000006000000fa000080200099
:1005480091000700af000700ae000700ad000700ec
:10055800ac000700ab000700908020008a0007006d
:10056800a8000700a7000700a6000700a5000700cd
:10057800a40007007081200083000700a100070085
:10058800a00007009f0007009e0007009d000700cd
:10059800508220007c0007009a000700990007009d
:1005a800980007009700070096000700b084200015
:1005b80075000700930007009200070091000700ec
:1005c800900007008f000700608520006e0007007c
:1005d8008c0007008b0007008a00070089000700cd
:1005e80088000700008820006700070085000700d2
:1005f80084000700830007008200070081000700cd
:10060800f0882000600007007e0007007d000700da
:100618007c0007007b0007007a0007000080fa00d2
:10062800000006000000fa00e089200056000700dc
:1006380074000700730007007200070071000700cc
:1006480070000700208a20004f0007006d00070097
:100658006c0007006b0007006a00070069000700cc
:080668000080fa00000006000a
:020000040000fa
:10067000b00800008000000000000000800f0000b3
:1006800080000000000000003009000002000000af
:100690000000000000080000b000000002000000a0
:1006a00041542b00525354000d0a000041542b00ba
:1006b00043574d004f4445003d310d000a004100b5
:1006c000542b430049504d0055583d00300d0a0051
:1006d000004154002b4357004a4150003d22520034
:1006e00045445f005749460049222c0022504100f2
:1006f000535357004f5244005f5749004649220068
:100700000d0a000041542b004349460053520d008e
:100710000a004100542b43004950530054415200f9
:10072000543d220054435000222c220049505f00c7
:10073000434f4d00505522002c5054004f5f530042
:100740004552560045520d000a004100542b43000b
:1007500049504d004f4445003d310d000a00410015
:10076000542b430049505300454e44003d340d0086
:100770000a002b002b2b000041542b004349500052
:10078000434c4f0053450d000a00000000000000dc
:020000040000fa
:10079000801f7800010078008000eb00b0407800f6
:1007a0000104e000080032008540a90081108800a3
:1007b000000000008540ae00da03040000000000e5
:1007c000cc030400000000004f0078000000060089
:1007d000801f7800901080008520a9004f007800cd
:1007e00000400600801f7800e01080008540a900ce
:1007f000801088008540ae00fa030400000000006d
:100800008700a9004f00780000400600801f780094
:10081000811f7800a10020000000eb000000e9002b
:10082000feff3a008100e900fbff3a00cf007800ac
:080830004f00780000000600f3
:020000040000fa
:0408380000000000bc
:020000040000fa
:0200000401f009
:04000000e0b9000063
:020000040000fa
:0200000401f009
:04000400ff7f00007a
:020000040000fa
:0200000401f009
:04000800feff0000f7
:020000040000fa
:0200000401f009
:04001400ffff0000ea
:00000001FF
