:020000040000fa
:080000000001040000000000f3
:020000040000fa
:04000800dc01000017
:020000040000fa
:04000c00dc01000013
:020000040000fa
:04001000dc0100000f
:020000040000fa
:04001400dc0100000b
:020000040000fa
:04001800dc01000007
:020000040000fa
:04001c00dc01000003
:020000040000fa
:04002000dc010000ff
:020000040000fa
:04002400dc010000fb
:020000040000fa
:04002800dc010000f7
:020000040000fa
:04002c00dc010000f3
:020000040000fa
:04003000dc010000ef
:020000040000fa
:04003400c8010000ff
:020000040000fa
:04003800dc010000e7
:020000040000fa
:04003c00dc010000e3
:020000040000fa
:04004000dc010000df
:020000040000fa
:04004400dc010000db
:020000040000fa
:04004800dc010000d7
:020000040000fa
:04004c00dc010000d3
:020000040000fa
:04005000dc010000cf
:020000040000fa
:04005400dc010000cb
:020000040000fa
:04005800dc010000c7
:020000040000fa
:04005c00dc010000c3
:020000040000fa
:04006000dc010000bf
:020000040000fa
:04006400dc010000bb
:020000040000fa
:04006800dc010000b7
:020000040000fa
:04006c00dc010000b3
:020000040000fa
:04007000dc010000af
:020000040000fa
:04007400dc010000ab
:020000040000fa
:04007800dc010000a7
:020000040000fa
:04007c00dc010000a3
:020000040000fa
:04008000dc0100009f
:020000040000fa
:04008400dc0100009b
:020000040000fa
:04008800dc01000097
:020000040000fa
:04008c00dc01000093
:020000040000fa
:04009000dc0100008f
:020000040000fa
:04009400dc0100008b
:020000040000fa
:04009800dc01000087
:020000040000fa
:04009c00dc01000083
:020000040000fa
:0400a000dc0100007f
:020000040000fa
:0400a400dc0100007b
:020000040000fa
:0400a800dc01000077
:020000040000fa
:0400ac00dc01000073
:020000040000fa
:0400b000dc0100006f
:020000040000fa
:0400b400dc0100006b
:020000040000fa
:0400b800dc01000067
:020000040000fa
:0400bc00dc01000063
:020000040000fa
:0400c000dc0100005f
:020000040000fa
:0400c400dc0100005b
:020000040000fa
:0400c800dc01000057
:020000040000fa
:0400cc00dc01000053
:020000040000fa
:0400d000dc0100004f
:020000040000fa
:0400d400dc0100004b
:020000040000fa
:0400d800dc01000047
:020000040000fa
:04010800dc01000016
:020000040000fa
:04010c00dc01000012
:020000040000fa
:04011000dc0100000e
:020000040000fa
:04011400dc0100000a
:020000040000fa
:04011800dc01000006
:020000040000fa
:04011c00dc01000002
:020000040000fa
:04012000dc010000fe
:020000040000fa
:04012400dc010000fa
:020000040000fa
:04012800dc010000f6
:020000040000fa
:04012c00dc010000f2
:020000040000fa
:04013000dc010000ee
:020000040000fa
:04013400dc010000ea
:020000040000fa
:04013800dc010000e6
:020000040000fa
:04013c00dc010000e2
:020000040000fa
:04014000dc010000de
:020000040000fa
:04014400dc010000da
:020000040000fa
:04014800dc010000d6
:020000040000fa
:04014c00dc010000d2
:020000040000fa
:04015000dc010000ce
:020000040000fa
:04015400dc010000ca
:020000040000fa
:04015800dc010000c6
:020000040000fa
:04015c00dc010000c2
:020000040000fa
:04016000dc010000be
:020000040000fa
:04016400dc010000ba
:020000040000fa
:04016800dc010000b6
:020000040000fa
:04016c00dc010000b2
:020000040000fa
:04017000dc010000ae
:020000040000fa
:04017400dc010000aa
:020000040000fa
:04017800dc010000a6
:020000040000fa
:04017c00dc010000a2
:020000040000fa
:04018000dc0100009e
:020000040000fa
:04018400dc0100009a
:020000040000fa
:04018800dc01000096
:020000040000fa
:04018c00dc01000092
:020000040000fa
:04019000dc0100008e
:020000040000fa
:04019400dc0100008a
:020000040000fa
:04019800dc01000086
:020000040000fa
:04019c00dc01000082
:020000040000fa
:0401a000dc0100007e
:020000040000fa
:0401a400dc0100007a
:020000040000fa
:0401a800dc01000076
:020000040000fa
:0401ac00dc01000072
:020000040000fa
:0401b000dc0100006e
:020000040000fa
:0401b400dc0100006a
:020000040000fa
:0401b800dc01000066
:020000040000fa
:0401bc00dc01000062
:020000040000fa
:0401c000dc0100005e
:020000040000fa
:0401c400dc0100005a
:020000040000fa
:0401c800dc01000056
:020000040000fa
:0401cc00dc01000052
:020000040000fa
:0401d000dc0100004e
:020000040000fa
:0401d400dc0100004a
:020000040000fa
:0401d800dc01000046
:020000040000fa
:100200004f8820000ef720000e018800000000003b
:10021000000020000000e000020032000001200089
:100220002002880014000700650007000000e000bd
:1002300003003a0060342000010020000200370073
:100240000000200001002000810f7000010032003a
:1002500014000700000020000000e000020032004f
:100260000000020000000000de02020000000000aa
:100270000040da000000fe004440a9000000200019
:100280000000e0000300320000002000a001880010
:100290004440a800000006008a1f78008b1f7800e9
:1002a0000000060091018800800478000000eb0047
:1002b0001a003700e284440032a0b4009905ba0065
:1002c000e284440032a0b4009906ba00e2844400fb
:1002d00032a0b4000006eb00476fde00fd07b2005d
:1002e000636ce10003003a00ebff07000000eb0045
:1002f0000a003700606ce10004003a00005deb008a
:100300008b05e900fdff3e00040037006168e10055
:10031000010032000086eb000b00070019c7ba008d
:100320001905ba000e04e00003003a000a00e000dc
:10033000e0ff3a0000000600fe07b2009e018800c0
:100340008a047800f5ff3700395dba008b05e900b3
:100350000c003200295dba008b05e900080032006c
:100360000c00e00003003a00e284440032a0b40034
:10037000f5ff370019ddba008b05e900faff3a00f6
:100380008904e800e184440032a0b40000000600c3
:100390003400f800881f780008002000a8018800b9
:1003a0004f0478000000fa008460a9000080fa0081
:1003b0003400f900004006000040da000000fe00b2
:0403c0000000050034
:020000040000fa
:1003c400e042a90000000000e062a9000000000073
:1003d400d442a80000000000c8e2b70000000000fa
:1003e400d442a900000000000000060000a0fe00a6
:1003f400e02222000000e900feff3a000080fe0037
:1004040000000600821f7800000178003240780066
:100414000004e00006003200340202000000000084
:100424001e02020000000000080204000000000098
:100434004f01780000000600e042a8000000000020
:10044400e062a90000000000d442a80000000000ff
:10045400c8e2b70000000000d442a9000000000078
:1004640000000600e042a90000000000c6e2ef0020
:1004740000000000e062a80000000000d442a800d0
:1004840000000000c8e2af004402040000000000c5
:10049400d442a90000000000e062a90000000000ae
:1004a40000f02f00c602b70000000600f8010200a9
:1004b4000000000000032000e20102000000000030
:1004c400f80102000000000000032000e201020025
:1004d40000000000f80102000000000000032000fa
:1004e400e2010200000000003402020000000000eb
:1004f40080032000e2010200000000003402020038
:100504000000000080002000e20102000000000062
:10051400340202000000000010002000e20102008a
:10052400000000003402020000000000600020000f
:10053400e20102000000000034020200000000009a
:10054400f0002000e20102000000000000000600ac
:10055400801f780030002000104488004f0078008d
:1005640000000600811f7800c00020003100200038
:1005740001004000cf0078000000060001004000a8
:10058400000006000001eb00811f7800821f780044
:10059400b04078000104e000030032000201e800ea
:1005a400ca02040000000000020078004f01780035
:1005b400cf007800000006000c00fa0080f426004a
:1005c400c116260030079800410798000040eb0050
:1005d400204f98001f0007001b0007005000200058
:1005e40010448800daff0700deff0700000f7800e0
:1005f400c100200050002000e0ff07001007980011
:1006040066004700dfff070020079800a7ff0700e8
:1006140094ff070080c6b30087ff070091ff07001f
:10062400f0c6b30084ff07008eff0700c0c6b30006
:1006340081ff07008bff070010c6b3007eff070091
:1006440000000000feff37000000fa000080fa00fe
:10065400000006000000fa00c822ef0000000000bd
:10066400ca22ef0000000000c622ef0000000000d4
:100674000080eb004015880000000000c682a8003e
:080684000080fa0000000600ee
:020000040000fa
:10068c00000800008000000000000000800f000047
:10069c008000000000000000800800000400000042
:0806ac00000000000000000046
:020000040000fa
:0406b4000000000042
:020000040000fa
:0200000401f009
:04000000e0b9000063
:020000040000fa
:0200000401f009
:04000400ff7f00007a
:020000040000fa
:0200000401f009
:04000800feff0000f7
:020000040000fa
:0200000401f009
:04001400ffff0000ea
:00000001FF
