:020000040000fa
:080000000001040000000000f3
:020000040000fa
:04000800c80100002b
:020000040000fa
:04000c00c801000027
:020000040000fa
:04001000c801000023
:020000040000fa
:04001400c80100001f
:020000040000fa
:04001800c80100001b
:020000040000fa
:04001c00c801000017
:020000040000fa
:04002000c801000013
:020000040000fa
:04002400c80100000f
:020000040000fa
:04002800c80100000b
:020000040000fa
:04002c00c801000007
:020000040000fa
:04003000c801000003
:020000040000fa
:04003400c8010000ff
:020000040000fa
:04003800c8010000fb
:020000040000fa
:04003c00c8010000f7
:020000040000fa
:04004000c8010000f3
:020000040000fa
:04004400c8010000ef
:020000040000fa
:04004800c8010000eb
:020000040000fa
:04004c00c8010000e7
:020000040000fa
:04005000c8010000e3
:020000040000fa
:04005400c8010000df
:020000040000fa
:04005800c8010000db
:020000040000fa
:04005c00c8010000d7
:020000040000fa
:04006000c8010000d3
:020000040000fa
:04006400c8010000cf
:020000040000fa
:04006800c8010000cb
:020000040000fa
:04006c00c8010000c7
:020000040000fa
:04007000c8010000c3
:020000040000fa
:04007400c8010000bf
:020000040000fa
:04007800c8010000bb
:020000040000fa
:04007c00c8010000b7
:020000040000fa
:04008000c8010000b3
:020000040000fa
:04008400c8010000af
:020000040000fa
:0400880090040000e0
:020000040000fa
:04008c00c8010000a7
:020000040000fa
:04009000c8010000a3
:020000040000fa
:04009400c80100009f
:020000040000fa
:04009800c80100009b
:020000040000fa
:04009c00c801000097
:020000040000fa
:0400a000c801000093
:020000040000fa
:0400a400c80100008f
:020000040000fa
:0400a800c80100008b
:020000040000fa
:0400ac00c801000087
:020000040000fa
:0400b000c801000083
:020000040000fa
:0400b400c80100007f
:020000040000fa
:0400b800c80100007b
:020000040000fa
:0400bc00c801000077
:020000040000fa
:0400c000c801000073
:020000040000fa
:0400c400c80100006f
:020000040000fa
:0400c800c80100006b
:020000040000fa
:0400cc00c801000067
:020000040000fa
:0400d000c801000063
:020000040000fa
:0400d400c80100005f
:020000040000fa
:0400d800c80100005b
:020000040000fa
:04010800c80100002a
:020000040000fa
:04010c00c801000026
:020000040000fa
:04011000c801000022
:020000040000fa
:04011400c80100001e
:020000040000fa
:04011800c80100001a
:020000040000fa
:04011c00c801000016
:020000040000fa
:04012000c801000012
:020000040000fa
:04012400c80100000e
:020000040000fa
:04012800c80100000a
:020000040000fa
:04012c00c801000006
:020000040000fa
:04013000c801000002
:020000040000fa
:04013400c8010000fe
:020000040000fa
:04013800c8010000fa
:020000040000fa
:04013c00c8010000f6
:020000040000fa
:04014000c8010000f2
:020000040000fa
:04014400c8010000ee
:020000040000fa
:04014800c8010000ea
:020000040000fa
:04014c00c8010000e6
:020000040000fa
:04015000c8010000e2
:020000040000fa
:04015400c8010000de
:020000040000fa
:04015800c8010000da
:020000040000fa
:04015c00c8010000d6
:020000040000fa
:04016000c8010000d2
:020000040000fa
:04016400c8010000ce
:020000040000fa
:04016800c8010000ca
:020000040000fa
:04016c00c8010000c6
:020000040000fa
:04017000c8010000c2
:020000040000fa
:04017400c8010000be
:020000040000fa
:04017800c8010000ba
:020000040000fa
:04017c00c8010000b6
:020000040000fa
:04018000c8010000b2
:020000040000fa
:04018400c8010000ae
:020000040000fa
:04018800c8010000aa
:020000040000fa
:04018c00c8010000a6
:020000040000fa
:04019000c8010000a2
:020000040000fa
:04019400c80100009e
:020000040000fa
:04019800c80100009a
:020000040000fa
:04019c00c801000096
:020000040000fa
:0401a000c801000092
:020000040000fa
:0401a400c80100008e
:020000040000fa
:0401a800c80100008a
:020000040000fa
:0401ac00c801000086
:020000040000fa
:0401b000c801000082
:020000040000fa
:0401b400c80100007e
:020000040000fa
:0401b800c80100007a
:020000040000fa
:0401bc00c801000076
:020000040000fa
:0401c000c801000072
:020000040000fa
:0401c400c80100006e
:020000040000fa
:0401c800c80100006a
:020000040000fa
:0401cc00c801000066
:020000040000fa
:0401d000c801000062
:020000040000fa
:0401d400c80100005e
:020000040000fa
:0401d800c80100005a
:020000040000fa
:100200002f8820000ef720000e018800000000005b
:10021000000020000000e000020032000001200089
:1002200020028800140007005b0007000000e000c7
:1002300003003a00c0472000010020000200370000
:100240000000200001002000810f7000010032003a
:1002500014000700000020000000e000020032004f
:100260000000020000000000840302000000000003
:100270000040da000000fe004440a900600b2000ae
:100280000000e0000300320000002000a001880010
:100290004440a800000006008a1f78008b1f7800e9
:1002a0000000060091018800800478000000eb0047
:1002b0001a003700e284440032a0b4009905ba0065
:1002c000e284440032a0b4009906ba00e2844400fb
:1002d00032a0b4000006eb00476fde00fd07b2005d
:1002e000636ce10003003a00ebff07000000eb0045
:1002f0000a003700606ce10004003a00005deb008a
:100300008b05e900fdff3e00040037006168e10055
:10031000010032000086eb000b00070019c7ba008d
:100320001905ba000e04e00003003a000a00e000dc
:10033000e0ff3a0000000600fe07b2009e018800c0
:100340008a047800f5ff3700395dba008b05e900b3
:100350000c003200295dba008b05e900080032006c
:100360000c00e00003003a00e284440032a0b40034
:10037000f5ff370019ddba008b05e900faff3a00f6
:100380008904e800e184440032a0b40000000600c3
:0c0390000040da000000fe000000050044
:020000040000fa
:10039c00415400002b520000535400000d0a000081
:1003ac0000410000542b0000435700004d4f00004b
:1003bc00444500003d3100000d0a000000410000e2
:1003cc00542b000043490000504d000055580000cc
:1003dc003d3000000d0a000000410000542b0000cd
:1003ec00435700004a410000503d000022490000e4
:1003fc004e460000494e000049540000554d000087
:10040c0033460000393700005f3200002e34000004
:10041c00222c0000227400003831000072310000e0
:10042c0072640000456e0000612200000d0a00009d
:10043c0000410000542b00004349000046530000cb
:10044c00520d00000a000000415400002b43000034
:10045c00495000005354000041520000543d00002c
:10046c002254000043500000222c000022310000d6
:10047c00393200002e310000363800002e310000d9
:10048c002e370000332200002c35000030300000e5
:10049c00303700000d0a000000410000542b000012
:1004ac0043490000504d00004f440000453d000002
:1004bc00310d00000a000000415400002b430000e5
:1004cc0049500000534500004e4400003d340000ec
:1004dc000d0a0000002b00002b2b00000041000037
:1004ec00542b000043490000504300004c4f0000c7
:0c04fc00534500000d0a00000000000045
:020000040000fa
:100508000200fa00004f780001003700e6000700fb
:100518001e80fb000000ea004f00de00004078006b
:100528001e4fe9000004e000f8ff3a000080fa00de
:10053800000006000000fa00c222ef0000000000e0
:10054800c422ef0000000000c162a9000000000002
:10055800d422ef0000000000d622ef0000000000c7
:10056800d202a90000000000e022ef000000000015
:10057800e222ef0000000000de42a80000000000b8
:10058800de62a90000000000de82a8000000000072
:10059800dea2a900000000000080fa0000000600aa
:1005a8000000fa000c22ef000000280070108800fc
:1005b8001422ef001622ef0000002800c010880067
:1005c8001e22ef000080fa00000006000000fa007a
:1005d8008520a9008d20a8008700a9008f00a80009
:1005e8000080fa00000006000000fa000de2a800f2
:1005f8000f42a80017e2a8001942a8000080fa00dc
:10060800000006000000fa00c362a800a600070068
:10061800d402a800a4000700d402a900a200070081
:10062800d402a800a00007000080fa00000006001d
:100638000200fa00000f7800050037001e0078005d
:10064800104078000000fb00801088001e0fe800b2
:100658001e007800104078000004e000f7ff3a0020
:100668000080fa00000006000000fa00e01c2800e4
:10067800efff07008c000700701d2800ecff070043
:1006880089000700501e2800e9ff070086000700c0
:10069800301f2800e6ff070083000700f02128002c
:1006a800e3ff070080000700a0222800e0ff070002
:1006b8007d00070030252800ddff07007a000700cd
:1006c80020262800daff0700770007000080fa00dc
:1006d800000006000000fa0010272800d4ff0700d9
:1006e80050c0b30086ff070050272800d0ff07003e
:1006f80050c0b30082ff07000080fa000000060027
:100708000000fa008bff0700a5ff0700afff0700f6
:10071800b5ff0700bbff0700d3ff070080042000d8
:1007280080108800f004200080108800c004200099
:100738008010880010042000801088005a000700ec
:10074800e4ff070000000000feff3700d462a900a4
:1007580000000000d522a80000000000d442a80034
:1007680000000000c6e2ef0000000000c8e2af0091
:10077800ba03040000000000d442a90000000000f1
:10078800d522a90000000000c662ef0000000000aa
:1007980000000600aa03020000000000d462a900bd
:1007a80000000000d522a90000000000d442a800e3
:1007b80000000000c8e2b70000000000d442a90011
:1007c80000000000000006006e04020000000000a7
:1007d80000032000ce030200000000006e040200a7
:1007e8000000000000032000ce030200000000000b
:1007f8006e0402000000000000032000ce03020087
:100808000000000080032000ce030200000000006a
:1008180080002000ce03020000000000100020002d
:10082800ce0302000000000060002000ce0302009a
:1008380000000000f0002000ce03020000000000cd
:1008480000000600aa03020000000000d462a8000d
:1008580000000000d522a90000000000d442a80032
:1008680000000000c8e2b70000000000d442a90060
:100878000000000000000600811f7800800078005a
:100888000000eb00314078000004e0000400320072
:1008980026040200000000004604040000000000d6
:1008a800cf00780000000600801f7800811f7800c4
:1008b800a10020000000eb000000e900feff3a0064
:1008c8008100e900fbff3a00cf0078004f00780074
:1008d80000000600801f78000000eb00b0432200f3
:1008e8000000e900feff3a004f0078000000060013
:020000040000fa
:1008f800000800008000000000000000800f0000d9
:1009080080000000000000008008000002000000d5
:080918000000000000000000d7
:020000040000fa
:10092000e0108000801088005804020000000000e1
:080930008700a9000040060049
:020000040000fa
:0409380000000000bb
:020000040000fa
:0200000401f009
:04000000e0b9000063
:020000040000fa
:0200000401f009
:04000400ff7f00007a
:020000040000fa
:0200000401f009
:04000800feff0000f7
:020000040000fa
:0200000401f009
:04001400ffff0000ea
:00000001FF
