:020000040000fa
:080000000001040000000000f3
:020000040000fa
:04000800c80100002b
:020000040000fa
:04000c00c801000027
:020000040000fa
:04001000c801000023
:020000040000fa
:04001400c80100001f
:020000040000fa
:04001800c80100001b
:020000040000fa
:04001c00c801000017
:020000040000fa
:04002000c801000013
:020000040000fa
:04002400c80100000f
:020000040000fa
:04002800c80100000b
:020000040000fa
:04002c00c801000007
:020000040000fa
:04003000c801000003
:020000040000fa
:04003400c8010000ff
:020000040000fa
:04003800c8010000fb
:020000040000fa
:04003c00c8010000f7
:020000040000fa
:04004000c8010000f3
:020000040000fa
:04004400c8010000ef
:020000040000fa
:04004800c8010000eb
:020000040000fa
:04004c00c8010000e7
:020000040000fa
:04005000c8010000e3
:020000040000fa
:04005400c8010000df
:020000040000fa
:04005800c8010000db
:020000040000fa
:04005c00c8010000d7
:020000040000fa
:04006000c8010000d3
:020000040000fa
:04006400c8010000cf
:020000040000fa
:04006800c8010000cb
:020000040000fa
:04006c00c8010000c7
:020000040000fa
:04007000c8010000c3
:020000040000fa
:04007400c8010000bf
:020000040000fa
:04007800c8010000bb
:020000040000fa
:04007c00c8010000b7
:020000040000fa
:04008000c8010000b3
:020000040000fa
:04008400c8010000af
:020000040000fa
:04008800b4040000bc
:020000040000fa
:04008c00c8010000a7
:020000040000fa
:04009000c8010000a3
:020000040000fa
:04009400c80100009f
:020000040000fa
:04009800c80100009b
:020000040000fa
:04009c00c801000097
:020000040000fa
:0400a000c801000093
:020000040000fa
:0400a400c80100008f
:020000040000fa
:0400a800c80100008b
:020000040000fa
:0400ac00c801000087
:020000040000fa
:0400b000c801000083
:020000040000fa
:0400b400c80100007f
:020000040000fa
:0400b800c80100007b
:020000040000fa
:0400bc00c801000077
:020000040000fa
:0400c000c801000073
:020000040000fa
:0400c400c80100006f
:020000040000fa
:0400c800c80100006b
:020000040000fa
:0400cc00c801000067
:020000040000fa
:0400d000c801000063
:020000040000fa
:0400d400c80100005f
:020000040000fa
:0400d800c80100005b
:020000040000fa
:04010800c80100002a
:020000040000fa
:04010c00c801000026
:020000040000fa
:04011000c801000022
:020000040000fa
:04011400c80100001e
:020000040000fa
:04011800c80100001a
:020000040000fa
:04011c00c801000016
:020000040000fa
:04012000c801000012
:020000040000fa
:04012400c80100000e
:020000040000fa
:04012800c80100000a
:020000040000fa
:04012c00c801000006
:020000040000fa
:04013000c801000002
:020000040000fa
:04013400c8010000fe
:020000040000fa
:04013800c8010000fa
:020000040000fa
:04013c00c8010000f6
:020000040000fa
:04014000c8010000f2
:020000040000fa
:04014400c8010000ee
:020000040000fa
:04014800c8010000ea
:020000040000fa
:04014c00c8010000e6
:020000040000fa
:04015000c8010000e2
:020000040000fa
:04015400c8010000de
:020000040000fa
:04015800c8010000da
:020000040000fa
:04015c00c8010000d6
:020000040000fa
:04016000c8010000d2
:020000040000fa
:04016400c8010000ce
:020000040000fa
:04016800c8010000ca
:020000040000fa
:04016c00c8010000c6
:020000040000fa
:04017000c8010000c2
:020000040000fa
:04017400c8010000be
:020000040000fa
:04017800c8010000ba
:020000040000fa
:04017c00c8010000b6
:020000040000fa
:04018000c8010000b2
:020000040000fa
:04018400c8010000ae
:020000040000fa
:04018800c8010000aa
:020000040000fa
:04018c00c8010000a6
:020000040000fa
:04019000c8010000a2
:020000040000fa
:04019400c80100009e
:020000040000fa
:04019800c80100009a
:020000040000fa
:04019c00c801000096
:020000040000fa
:0401a000c801000092
:020000040000fa
:0401a400c80100008e
:020000040000fa
:0401a800c80100008a
:020000040000fa
:0401ac00c801000086
:020000040000fa
:0401b000c801000082
:020000040000fa
:0401b400c80100007e
:020000040000fa
:0401b800c80100007a
:020000040000fa
:0401bc00c801000076
:020000040000fa
:0401c000c801000072
:020000040000fa
:0401c400c80100006e
:020000040000fa
:0401c800c80100006a
:020000040000fa
:0401cc00c801000066
:020000040000fa
:0401d000c801000062
:020000040000fa
:0401d400c80100005e
:020000040000fa
:0401d800c80100005a
:020000040000fa
:100200002f8820000ef720000e018800000000005b
:10021000000020000000e000020032000001200089
:1002200020028800140007005b0007000000e000c7
:1002300003003a00004a20000100200002003700bd
:100240000000200001002000810f7000010032003a
:1002500014000700000020000000e000020032004f
:100260000000020000000000a603020000000000e1
:100270000040da000000fe004440a900800b20008e
:100280000000e0000300320000002000a001880010
:100290004440a800000006008a1f78008b1f7800e9
:1002a0000000060091018800800478000000eb0047
:1002b0001a003700e284440032a0b4009905ba0065
:1002c000e284440032a0b4009906ba00e2844400fb
:1002d00032a0b4000006eb00476fde00fd07b2005d
:1002e000636ce10003003a00ebff07000000eb0045
:1002f0000a003700606ce10004003a00005deb008a
:100300008b05e900fdff3e00040037006168e10055
:10031000010032000086eb000b00070019c7ba008d
:100320001905ba000e04e00003003a000a00e000dc
:10033000e0ff3a0000000600fe07b2009e018800c0
:100340008a047800f5ff3700395dba008b05e900b3
:100350000c003200295dba008b05e900080032006c
:100360000c00e00003003a00e284440032a0b40034
:10037000f5ff370019ddba008b05e900faff3a00f6
:100380008904e800e184440032a0b40000000600c3
:0c0390000040da000000fe000000050044
:020000040000fa
:10039c00415400002b520000535400000d0a000081
:1003ac0000410000542b0000435700004d4f00004b
:1003bc00444500003d3100000d0a000000410000e2
:1003cc00542b000043490000504d000055580000cc
:1003dc003d3000000d0a000000410000542b0000cd
:1003ec00435700004a410000503d000022490000e4
:1003fc004e460000494e000049540000554d000087
:10040c0033460000393700005f3200002e34000004
:10041c00222c000022700000617300007377000032
:10042c006f720000644300006869000064610000a2
:10043c00220d00000a000000415400002b43000074
:10044c0049460000535200000d0a00000041000014
:10045c00542b00004349000050530000544100004d
:10046c00525400003d220000544300005022000072
:10047c002c22000031390000322e000031360000f1
:10048c00382e0000312e000037330000222c0000e3
:10049c003530000030300000370d00000a0000003d
:1004ac00415400002b430000495000004d4f000008
:1004bc00444500003d3100000d0a000000410000e1
:1004cc00542b00004349000050530000454e0000df
:1004dc00443d0000340d00000a0000002b2b0000ee
:1004ec002b000000415400002b4300004950000039
:1004fc00434c00004f530000450d00000a00000063
:020000040000fa
:10050c000200fa00004f780001003700f7000700e6
:10051c001e80fb000000ea004f00de000040780067
:10052c001e4fe9000004e000f8ff3a000080fa00da
:10053c00000006000000fa00c822ef0000000000d6
:10054c00ca22ef0000000000c622ef0000000000ed
:10055c000080eb004015880000000000c222ef0074
:10056c0000000000c422ef0000000000c162a900de
:10057c0000000000d422ef0000000000d622ef00a3
:10058c0000000000d202a90000000000e022ef00f1
:10059c0000000000e222ef0000000000de42a80094
:1005ac0000000000de62a90000000000de82a8004e
:1005bc0000000000dea2a900000000000080fa008c
:1005cc00000006000000fa000c22ef0000002800da
:1005dc00701088001422ef001622ef000000280093
:1005ec00c01088001e22ef000080fa0000000600f8
:1005fc000000fa008520a9008d20a8008700a90022
:10060c008f00a8000080fa00000006000000fa002d
:10061c000de2a8000f42a80017e2a8001942a8009a
:10062c000080fa00000006000000fa00c362a80077
:10063c00ae000700d402a800ac000700d402a90049
:10064c00aa000700d402a800a80007000080fa0046
:10065c00000006000200fa00000f78000c003700c2
:10066c008540a9001e007800104078000000fb00b7
:10067c008010880000000000210480000040200051
:10068c00008060000000e000fbff32001e0fe8005d
:10069c001e007800104078000004e000f0ff3a00e3
:1006ac000080fa00000006000000fa00e01c2800a0
:1006bc00e8ff07008d000700701d2800e5ff07000c
:1006cc008a000700501e2800e2ff07008700070081
:1006dc00301f2800dfff07008400070020222800bd
:1006ec00dcff070081000700d0222800d9ff07009b
:1006fc007e00070060252800d6ff07007b0007005e
:10070c0050262800d3ff0700780007000080fa006d
:10071c00000006000000fa0040272800cdff07006b
:10072c0050c0b30076ff070080272800c9ff0700e0
:10073c0050c0b30072ff07000080fa0000000600f2
:10074c000000fa007bff0700300007009dff070048
:10075c00a7ff0700adff0700b3ff0700d2ff07009c
:10076c008004200080108800f00420008010880095
:10077c00c004200080108800100420008010880025
:10078c005a000700e3ff070000000000feff3700df
:10079c00d462a90000000000d522a80000000000cf
:1007ac00d442a80000000000c6e2ef0000000000e8
:1007bc00c8e2af00de03040000000000d442a90030
:1007cc0000000000d522a90000000000c662ef0066
:1007dc000000000000000600ce0302000000000034
:1007ec00d462a90000000000d522a900000000007e
:1007fc00d442a80000000000c8e2b70000000000ce
:10080c00d442a9000000000000000600920402007f
:10081c000000000000032000f203020000000000b2
:10082c00920402000000000000032000f20302000a
:10083c0000000000920402000000000000032000f1
:10084c00f20302000000000080032000f20302000b
:10085c000000000080002000f203020000000000f5
:10086c0010002000f20302000000000060002000d5
:10087c00f203020000000000f0002000f20302006e
:10088c000000000000000600ce0302000000000083
:10089c00d462a80000000000d522a90000000000ce
:1008ac00d442a80000000000c8e2b700000000001d
:1008bc00d442a9000000000000000600811f78004f
:1008cc00800078000000eb00314078000004e0006c
:1008dc00040032004a040200000000006a04040014
:1008ec0000000000cf00780000000600801f780098
:1008fc00811f7800a10020000000eb000000e9003f
:10090c00feff3a008100e900fbff3a00cf007800bf
:10091c004f00780000000600801f78000000eb00fc
:10092c00b04322000000e900feff3a004f007800bf
:04093c0000000600b1
:020000040000fa
:10094000000800008000000000000000800f000090
:10095000800000000000000080080000020000008d
:0809600000000000000000008f
:020000040000fa
:10096800e0108000801088007c0402000000000075
:080978008700a9000040060001
:020000040000fa
:040980000000000073
:020000040000fa
:0200000401f009
:04000000e0b9000063
:020000040000fa
:0200000401f009
:04000400ff7f00007a
:020000040000fa
:0200000401f009
:04000800feff0000f7
:020000040000fa
:0200000401f009
:04001400ffff0000ea
:00000001FF
