:020000040000fa
:080000000001040000000000f3
:020000040000fa
:04000800c80100002b
:020000040000fa
:04000c00c801000027
:020000040000fa
:04001000c801000023
:020000040000fa
:04001400c80100001f
:020000040000fa
:04001800c80100001b
:020000040000fa
:04001c00c801000017
:020000040000fa
:04002000c801000013
:020000040000fa
:04002400c80100000f
:020000040000fa
:04002800c80100000b
:020000040000fa
:04002c00c801000007
:020000040000fa
:04003000c801000003
:020000040000fa
:04003400fc020000ca
:020000040000fa
:04003800c8010000fb
:020000040000fa
:04003c00c8010000f7
:020000040000fa
:04004000c8010000f3
:020000040000fa
:04004400c8010000ef
:020000040000fa
:04004800c8010000eb
:020000040000fa
:04004c00c8010000e7
:020000040000fa
:04005000c8010000e3
:020000040000fa
:04005400c8010000df
:020000040000fa
:04005800c8010000db
:020000040000fa
:04005c00c8010000d7
:020000040000fa
:04006000c8010000d3
:020000040000fa
:04006400c8010000cf
:020000040000fa
:04006800c8010000cb
:020000040000fa
:04006c00c8010000c7
:020000040000fa
:04007000c8010000c3
:020000040000fa
:04007400c8010000bf
:020000040000fa
:04007800c8010000bb
:020000040000fa
:04007c00c8010000b7
:020000040000fa
:04008000c8010000b3
:020000040000fa
:04008400c8010000af
:020000040000fa
:04008800c8010000ab
:020000040000fa
:04008c00c8010000a7
:020000040000fa
:04009000c8010000a3
:020000040000fa
:04009400c80100009f
:020000040000fa
:04009800c80100009b
:020000040000fa
:04009c00c801000097
:020000040000fa
:0400a000c801000093
:020000040000fa
:0400a400c80100008f
:020000040000fa
:0400a800c80100008b
:020000040000fa
:0400ac00c801000087
:020000040000fa
:0400b000c801000083
:020000040000fa
:0400b400c80100007f
:020000040000fa
:0400b800c80100007b
:020000040000fa
:0400bc00c801000077
:020000040000fa
:0400c000c801000073
:020000040000fa
:0400c400c80100006f
:020000040000fa
:0400c800c80100006b
:020000040000fa
:0400cc00c801000067
:020000040000fa
:0400d000c801000063
:020000040000fa
:0400d400c80100005f
:020000040000fa
:0400d800c80100005b
:020000040000fa
:04010800c80100002a
:020000040000fa
:04010c00c801000026
:020000040000fa
:04011000c801000022
:020000040000fa
:04011400c80100001e
:020000040000fa
:04011800c80100001a
:020000040000fa
:04011c00c801000016
:020000040000fa
:04012000c801000012
:020000040000fa
:04012400c80100000e
:020000040000fa
:04012800c80100000a
:020000040000fa
:04012c00c801000006
:020000040000fa
:04013000c801000002
:020000040000fa
:04013400c8010000fe
:020000040000fa
:04013800c8010000fa
:020000040000fa
:04013c00c8010000f6
:020000040000fa
:04014000c8010000f2
:020000040000fa
:04014400c8010000ee
:020000040000fa
:04014800c8010000ea
:020000040000fa
:04014c00c8010000e6
:020000040000fa
:04015000c8010000e2
:020000040000fa
:04015400c8010000de
:020000040000fa
:04015800c8010000da
:020000040000fa
:04015c00c8010000d6
:020000040000fa
:04016000c8010000d2
:020000040000fa
:04016400c8010000ce
:020000040000fa
:04016800c8010000ca
:020000040000fa
:04016c00c8010000c6
:020000040000fa
:04017000c8010000c2
:020000040000fa
:04017400c8010000be
:020000040000fa
:04017800c8010000ba
:020000040000fa
:04017c00c8010000b6
:020000040000fa
:04018000c8010000b2
:020000040000fa
:04018400c8010000ae
:020000040000fa
:04018800c8010000aa
:020000040000fa
:04018c00c8010000a6
:020000040000fa
:04019000c8010000a2
:020000040000fa
:04019400c80100009e
:020000040000fa
:04019800c80100009a
:020000040000fa
:04019c00c801000096
:020000040000fa
:0401a000c801000092
:020000040000fa
:0401a400c80100008e
:020000040000fa
:0401a800c80100008a
:020000040000fa
:0401ac00c801000086
:020000040000fa
:0401b000c801000082
:020000040000fa
:0401b400c80100007e
:020000040000fa
:0401b800c80100007a
:020000040000fa
:0401bc00c801000076
:020000040000fa
:0401c000c801000072
:020000040000fa
:0401c400c80100006e
:020000040000fa
:0401c800c80100006a
:020000040000fa
:0401cc00c801000066
:020000040000fa
:0401d000c801000062
:020000040000fa
:0401d400c80100005e
:020000040000fa
:0401d800c80100005a
:020000040000fa
:100200000f8920000ef720000e018800000000007a
:10021000000020000000e000020032000001200089
:1002200020028800140007005b0007000000e000c7
:1002300003003a002049200001002000020037009e
:100240000000200001002000810f7000010032003a
:1002500014000700000020000000e000020032004f
:100260000000020000000000740302000000000013
:100270000040da000000fe004440a900a003200076
:100280000000e0000300320000002000a001880010
:100290004440a800000006008a1f78008b1f7800e9
:1002a0000000060091018800800478000000eb0047
:1002b0001a003700e284440032a0b4009905ba0065
:1002c000e284440032a0b4009906ba00e2844400fb
:1002d00032a0b4000006eb00476fde00fd07b2005d
:1002e000636ce10003003a00ebff07000000eb0045
:1002f0000a003700606ce10004003a00005deb008a
:100300008b05e900fdff3e00040037006168e10055
:10031000010032000086eb000b00070019c7ba008d
:100320001905ba000e04e00003003a000a00e000dc
:10033000e0ff3a0000000600fe07b2009e018800c0
:100340008a047800f5ff3700395dba008b05e900b3
:100350000c003200295dba008b05e900080032006c
:100360000c00e00003003a00e284440032a0b40034
:10037000f5ff370019ddba008b05e900faff3a00f6
:100380008904e800e184440032a0b40000000600c3
:0c0390000040da000000fe000000050044
:020000040000fa
:10039c004e4f000054410000204400004f0000006c
:1003ac004e4f000054410000205200004500000058
:1003bc004e4f000054410000204d00004900000049
:1003cc004e4f000054410000204600004100000048
:1003dc004e4f000054410000205300004f4c0000d1
:1003ec00004e00004f540000412000004c41000022
:1003fc00004e00004f540000412000005349000003
:04040c0000000000ec
:020000040000fa
:10041000d462a90000000000d522a900000000005d
:10042000d442a80000000000c8e2b70000000000ad
:10043000d442a9000000000000000600d462a80019
:1004400000000000d522a90000000000d442a8004e
:1004500000000000c8e2b70000000000d442a9007c
:100460000000000000000600d462a90000000000a7
:10047000c6e2ef0000000000d522a8000000000046
:10048000d442a80000000000c8e2af00440204000b
:1004900000000000d442a90000000000d522a900fd
:1004a00000000000c6a2ef0000000000c662ef00de
:1004b00000000000000006000000eb00bc0202008b
:1004c00000000000000320000802020000000000fd
:1004d000bc0202000000000000032000080202002d
:1004e00000000000bc020200000000000003200029
:1004f00008020200000000003402020000000000b8
:100500008003200008020200000000003402020004
:10051000000000008000200008020200000000002f
:100520003402020000000000100020000802020057
:100530000000000034020200000000006000200003
:100540000802020000000000340202000000000067
:10055000f000200008020200000000000000060079
:100560003402020000000000100020000802020017
:100570000000000000000600801f78000000eb0073
:10058000b04322000000e900feff3a004f0078006f
:1005900000000600801f7800811f780051002000b5
:1005a0000000eb000000e900feff3a008100e900d6
:1005b000fbff3a00cf0078004f00780000000600f3
:1005c000811f7800800078000000eb003140780047
:1005d0000004e000060032003402020000000000c7
:1005e0001e02020000000000e602040000000000fd
:1005f000cf00780000000600d702aa00000000002b
:100600008460a90000400600801f78000021ef00f0
:1006100070032000100888000002280020088800cd
:100620004f00780000000600801f78000021ef00d6
:10063000100320001008880000022800200888000d
:100640004f00780000000600801f78000021ef00b6
:10065000b00020001008880000032800200888004f
:100660004f00780000000600801f78000021ef0096
:10067000f0a420001008880000002800200888004e
:100680004f00780000000600801f78000021ef0076
:10069000f092200010088800000028002008880040
:1006a0004f00780000000600801f78000021ef0056
:1006b0006010200010088800000128002008880031
:1006c0004f00780000000600801f78000021ef0036
:1006d000a07420001008880000002800200888006e
:1006e0004f007800000006000200fa000000eb0056
:1006f000000f7800720007006fff07006b00070013
:1007000000178000610060000000e0000a003a006d
:100710001e0078000000e00062003a00baff070007
:1007200010002000000f78008dff070000448000bb
:10073000a3ff07005b003700001780006200600025
:100740000000e0000a003a001e0078000000e0000f
:1007500054003a00b4ff070010002000000f78009a
:100760007fff07001044800095ff07004d00370011
:1007700000178000640060000000e0000a003a00fa
:100780001e0078000000e00046003a00aeff0700bf
:1007900010002000000f780071ff07002044800047
:1007a00087ff07003f0037000017800068006000e7
:1007b0000000e0000a003a001e0078000000e0009f
:1007c00038003a00a8ff070010002000000f780052
:1007d00063ff07003044800079ff070031003700d5
:1007e00000178000700060000000e0000a003a007e
:1007f0001e0078000000e0002a003a00a2ff070077
:1008000010002000000f780055ff070040448000d2
:100810006bff070023003700011780000002200053
:10082000008060000000e0000a003a001e0078002e
:100830000000e0001b003a009bff070010002000b2
:10084000000f780046ff0700504480005cff07005f
:1008500014003700011780000004200000806000b1
:100860000000e0000a003a001e0078000000e000ee
:100870000c003a0094ff070010002000000f7800e1
:1008800037ff0700604480004dff07000500370078
:1008900005e1a900d502a9000000eb00000f7800d7
:1008a0002fff07000000000095ff37000000fa004e
:1008b0008460a9008c60a8000080fa000000060097
:1008c0000000fa00ca22ef0000000000c622ef007c
:1008d00000000000c822ef00000000000080eb00d4
:1008e0004015880000000000d622ef000000000044
:1008f000d222ef0000000000d422ef000000000030
:10090000e022ef0000000000e222ef000000000003
:100910000080eb00f0168800000000000080fa0064
:0409200000000600cd
:020000040000fa
:10092400000800008000000000000000800f0000ac
:1009340080000000000000008e080000020000009b
:1009440000000000800800000e000000020000000b
:10095400ce81d60081de8100e681ee0081f7810040
:08096400ff810000000000000b
:020000040000fa
:04096c000000000087
:020000040000fa
:0200000401f009
:04000000e0b9000063
:020000040000fa
:0200000401f009
:04000400ff7f00007a
:020000040000fa
:0200000401f009
:04000800feff0000f7
:020000040000fa
:0200000401f009
:04001400ffff0000ea
:00000001FF
