:020000040000fa
:080000000001040000000000f3
:020000040000fa
:04000800dc01000017
:020000040000fa
:04000c00dc01000013
:020000040000fa
:04001000dc0100000f
:020000040000fa
:04001400dc0100000b
:020000040000fa
:04001800dc01000007
:020000040000fa
:04001c00dc01000003
:020000040000fa
:04002000dc010000ff
:020000040000fa
:04002400dc010000fb
:020000040000fa
:04002800dc010000f7
:020000040000fa
:04002c00dc010000f3
:020000040000fa
:04003000dc010000ef
:020000040000fa
:04003400c8010000ff
:020000040000fa
:04003800dc010000e7
:020000040000fa
:04003c00dc010000e3
:020000040000fa
:04004000dc010000df
:020000040000fa
:04004400dc010000db
:020000040000fa
:04004800dc010000d7
:020000040000fa
:04004c00dc010000d3
:020000040000fa
:04005000dc010000cf
:020000040000fa
:04005400dc010000cb
:020000040000fa
:04005800dc010000c7
:020000040000fa
:04005c00dc010000c3
:020000040000fa
:04006000dc010000bf
:020000040000fa
:04006400dc010000bb
:020000040000fa
:04006800dc010000b7
:020000040000fa
:04006c00dc010000b3
:020000040000fa
:04007000dc010000af
:020000040000fa
:04007400dc010000ab
:020000040000fa
:04007800dc010000a7
:020000040000fa
:04007c00dc010000a3
:020000040000fa
:04008000dc0100009f
:020000040000fa
:04008400dc0100009b
:020000040000fa
:04008800dc01000097
:020000040000fa
:04008c00dc01000093
:020000040000fa
:04009000dc0100008f
:020000040000fa
:04009400dc0100008b
:020000040000fa
:04009800dc01000087
:020000040000fa
:04009c00dc01000083
:020000040000fa
:0400a000dc0100007f
:020000040000fa
:0400a400dc0100007b
:020000040000fa
:0400a800dc01000077
:020000040000fa
:0400ac00dc01000073
:020000040000fa
:0400b000dc0100006f
:020000040000fa
:0400b400dc0100006b
:020000040000fa
:0400b800dc01000067
:020000040000fa
:0400bc00dc01000063
:020000040000fa
:0400c000dc0100005f
:020000040000fa
:0400c400dc0100005b
:020000040000fa
:0400c800dc01000057
:020000040000fa
:0400cc00dc01000053
:020000040000fa
:0400d000dc0100004f
:020000040000fa
:0400d400dc0100004b
:020000040000fa
:0400d800dc01000047
:020000040000fa
:04010800dc01000016
:020000040000fa
:04010c00dc01000012
:020000040000fa
:04011000dc0100000e
:020000040000fa
:04011400dc0100000a
:020000040000fa
:04011800dc01000006
:020000040000fa
:04011c00dc01000002
:020000040000fa
:04012000dc010000fe
:020000040000fa
:04012400dc010000fa
:020000040000fa
:04012800dc010000f6
:020000040000fa
:04012c00dc010000f2
:020000040000fa
:04013000dc010000ee
:020000040000fa
:04013400dc010000ea
:020000040000fa
:04013800dc010000e6
:020000040000fa
:04013c00dc010000e2
:020000040000fa
:04014000dc010000de
:020000040000fa
:04014400dc010000da
:020000040000fa
:04014800dc010000d6
:020000040000fa
:04014c00dc010000d2
:020000040000fa
:04015000dc010000ce
:020000040000fa
:04015400dc010000ca
:020000040000fa
:04015800dc010000c6
:020000040000fa
:04015c00dc010000c2
:020000040000fa
:04016000dc010000be
:020000040000fa
:04016400dc010000ba
:020000040000fa
:04016800dc010000b6
:020000040000fa
:04016c00dc010000b2
:020000040000fa
:04017000dc010000ae
:020000040000fa
:04017400dc010000aa
:020000040000fa
:04017800dc010000a6
:020000040000fa
:04017c00dc010000a2
:020000040000fa
:04018000dc0100009e
:020000040000fa
:04018400dc0100009a
:020000040000fa
:04018800dc01000096
:020000040000fa
:04018c00dc01000092
:020000040000fa
:04019000dc0100008e
:020000040000fa
:04019400dc0100008a
:020000040000fa
:04019800dc01000086
:020000040000fa
:04019c00dc01000082
:020000040000fa
:0401a000dc0100007e
:020000040000fa
:0401a400dc0100007a
:020000040000fa
:0401a800dc01000076
:020000040000fa
:0401ac00dc01000072
:020000040000fa
:0401b000dc0100006e
:020000040000fa
:0401b400dc0100006a
:020000040000fa
:0401b800dc01000066
:020000040000fa
:0401bc00dc01000062
:020000040000fa
:0401c000dc0100005e
:020000040000fa
:0401c400dc0100005a
:020000040000fa
:0401c800dc01000056
:020000040000fa
:0401cc00dc01000052
:020000040000fa
:0401d000dc0100004e
:020000040000fa
:0401d400dc0100004a
:020000040000fa
:0401d800dc01000046
:020000040000fa
:100200006f8820000ef720000e018800000000001b
:10021000000020000000e000020032000001200089
:100220002002880014000700650007000000e000bd
:1002300003003a00c0372000010020000200370010
:100240000000200001002000810f7000010032003a
:1002500014000700000020000000e000020032004f
:100260000000020000000000d802020000000000b0
:100270000040da000000fe004440a900a000200079
:100280000000e0000300320000002000a001880010
:100290004440a800000006008a1f78008b1f7800e9
:1002a0000000060091018800800478000000eb0047
:1002b0001a003700e284440032a0b4009905ba0065
:1002c000e284440032a0b4009906ba00e2844400fb
:1002d00032a0b4000006eb00476fde00fd07b2005d
:1002e000636ce10003003a00ebff07000000eb0045
:1002f0000a003700606ce10004003a00005deb008a
:100300008b05e900fdff3e00040037006168e10055
:10031000010032000086eb000b00070019c7ba008d
:100320001905ba000e04e00003003a000a00e000dc
:10033000e0ff3a0000000600fe07b2009e018800c0
:100340008a047800f5ff3700395dba008b05e900b3
:100350000c003200295dba008b05e900080032006c
:100360000c00e00003003a00e284440032a0b40034
:10037000f5ff370019ddba008b05e900faff3a00f6
:100380008904e800e184440032a0b40000000600c3
:100390003400f800881f780008002000a8018800b9
:1003a0004f0478000000fa008460a9000080fa0081
:1003b0003400f900004006000040da000000fe00b2
:0403c0000000050034
:020000040000fa
:1003c400434f00004e540000454f00003a20000007
:0403d4000000000025
:020000040000fa
:1003d800d222ef0000000000e042a9000000000067
:1003e800e062a90000000000d442a800000000005c
:1003f800c8e2b70000000000d442a90000000000d5
:1004080000000600de22ef00d222ef00e042a80042
:1004180000000000e062a90000000000d442a8002b
:1004280000000000c8e2b70000000000d442a900a4
:100438000000000000000600801f7800de22ef00a8
:10044800d222ef00e042a90000000000c6e2ef005f
:1004580000000000e062a80000000000d442a800ec
:1004680000000000c8e2af003602040000000000ef
:10047800d442a90000000000e062a90000000000ca
:10048800c6a2ef0000000000c662ef0000000000f6
:100498004f007800000006000000eb00be020200da
:1004a8000000000000032000ec0102000000000032
:1004b800be0202000000000000032000ec01020060
:1004c80000000000be02020000000000000320003f
:1004d800ec01020000000000200202000000000001
:1004e80080032000ec01020000000000200202004e
:1004f8000000000080002000ec0102000000000065
:10050800200202000000000010002000ec010200a0
:10051800000000002002020000000000600020002f
:10052800ec010200000000002002020000000000b0
:10053800f0002000ec0102000000000000000600ae
:10054800811f780080007800314078000004e000c6
:10055800060032002002020000000000060202002d
:1005680000000000a802040000000000cf0078008e
:1005780000000600801f7800811f78000000eb0053
:100588000000e900feff3a00cf0078004f00780035
:1005980000000600be02020000000000be020200c9
:1005a80000000000000006000000fa00220007001a
:1005b800b9ff07001a0007008268ef008368ef00a0
:1005c8008468ef008568ef00201e2800dcff070024
:1005d80099ff070070c8b3007dff070096ff07006a
:1005e80085c8bf000043b00086ff070092ff0700e0
:1005f80084c8bf000043b00082ff07008eff0700d9
:1006080083c8bf000043b0007eff07008aff0700d1
:1006180082c8bf000043b0007aff0700ecff370034
:100628000000fa008400a9008200a8008c00a8003d
:100638000080fa00000006000000fa00c822ef005f
:1006480000000000ca22ef0000000000c622ef00f0
:10065800000000000080eb0040158800000000004a
:100668000080fa0000000600801f7800a00020002b
:100678008268ec008248e3000d003a008268ef00cf
:100688008368ec008348e30009003a008368ef00c0
:100698008468ec008448e30005003a008468ef00b1
:1006a8008568ec008548e30001003a008568ef00a2
:1006b8008400a9004f00780000400600801f7800e1
:1006c800811f78000000eb000000e900feff3a00ff
:1006d800cf0078004f007800000006006203020097
:1006e8000000000062030200000000000000060095
:020000040000fa
:1006f800000800008000000000000000800f0000db
:1007080080000000000000008008000006000000d3
:080718000000000000000000d9
:020000040000fa
:0407200000000000d5
:020000040000fa
:0200000401f009
:04000000e0b9000063
:020000040000fa
:0200000401f009
:04000400ff7f00007a
:020000040000fa
:0200000401f009
:04000800feff0000f7
:020000040000fa
:0200000401f009
:04001400ffff0000ea
:00000001FF
